{
  "contractName": "FlightSuretyApp",
  "abi": [
    {
      "inputs": [],
      "stateMutability": "nonpayable",
      "type": "constructor"
    },
    {
      "anonymous": false,
      "inputs": [
        {
          "indexed": false,
          "internalType": "address",
          "name": "airline",
          "type": "address"
        },
        {
          "indexed": false,
          "internalType": "string",
          "name": "flight",
          "type": "string"
        },
        {
          "indexed": false,
          "internalType": "uint256",
          "name": "timestamp",
          "type": "uint256"
        },
        {
          "indexed": false,
          "internalType": "uint8",
          "name": "status",
          "type": "uint8"
        }
      ],
      "name": "FlightStatusInfo",
      "type": "event"
    },
    {
      "anonymous": false,
      "inputs": [
        {
          "indexed": false,
          "internalType": "address",
          "name": "airline",
          "type": "address"
        },
        {
          "indexed": false,
          "internalType": "string",
          "name": "flight",
          "type": "string"
        },
        {
          "indexed": false,
          "internalType": "uint256",
          "name": "timestamp",
          "type": "uint256"
        },
        {
          "indexed": false,
          "internalType": "uint8",
          "name": "status",
          "type": "uint8"
        }
      ],
      "name": "OracleReport",
      "type": "event"
    },
    {
      "anonymous": false,
      "inputs": [
        {
          "indexed": false,
          "internalType": "uint8",
          "name": "index",
          "type": "uint8"
        },
        {
          "indexed": false,
          "internalType": "address",
          "name": "airline",
          "type": "address"
        },
        {
          "indexed": false,
          "internalType": "string",
          "name": "flight",
          "type": "string"
        },
        {
          "indexed": false,
          "internalType": "uint256",
          "name": "timestamp",
          "type": "uint256"
        }
      ],
      "name": "OracleRequest",
      "type": "event"
    },
    {
      "inputs": [],
      "name": "REGISTRATION_FEE",
      "outputs": [
        {
          "internalType": "uint256",
          "name": "",
          "type": "uint256"
        }
      ],
      "stateMutability": "view",
      "type": "function"
    },
    {
      "inputs": [],
      "name": "isOperational",
      "outputs": [
        {
          "internalType": "bool",
          "name": "",
          "type": "bool"
        }
      ],
      "stateMutability": "pure",
      "type": "function"
    },
    {
      "inputs": [],
      "name": "registerAirline",
      "outputs": [
        {
          "internalType": "bool",
          "name": "success",
          "type": "bool"
        },
        {
          "internalType": "uint256",
          "name": "votes",
          "type": "uint256"
        }
      ],
      "stateMutability": "pure",
      "type": "function"
    },
    {
      "inputs": [],
      "name": "registerFlight",
      "outputs": [],
      "stateMutability": "pure",
      "type": "function"
    },
    {
      "inputs": [
        {
          "internalType": "address",
          "name": "airline",
          "type": "address"
        },
        {
          "internalType": "string",
          "name": "flight",
          "type": "string"
        },
        {
          "internalType": "uint256",
          "name": "timestamp",
          "type": "uint256"
        }
      ],
      "name": "fetchFlightStatus",
      "outputs": [],
      "stateMutability": "nonpayable",
      "type": "function"
    },
    {
      "inputs": [],
      "name": "registerOracle",
      "outputs": [],
      "stateMutability": "payable",
      "type": "function"
    },
    {
      "inputs": [],
      "name": "getMyIndexes",
      "outputs": [
        {
          "internalType": "uint8[3]",
          "name": "arrayIndexes",
          "type": "uint8[3]"
        }
      ],
      "stateMutability": "view",
      "type": "function"
    },
    {
      "inputs": [
        {
          "internalType": "uint8",
          "name": "index",
          "type": "uint8"
        },
        {
          "internalType": "address",
          "name": "airline",
          "type": "address"
        },
        {
          "internalType": "string",
          "name": "flight",
          "type": "string"
        },
        {
          "internalType": "uint256",
          "name": "timestamp",
          "type": "uint256"
        },
        {
          "internalType": "uint8",
          "name": "statusCode",
          "type": "uint8"
        }
      ],
      "name": "submitOracleResponse",
      "outputs": [],
      "stateMutability": "nonpayable",
      "type": "function"
    }
  ],
  "bytecode": "0x60806040526000600260006101000a81548160ff021916908360ff16021790555034801561002c57600080fd5b50336000806101000a81548173ffffffffffffffffffffffffffffffffffffffff021916908373ffffffffffffffffffffffffffffffffffffffff16021790555061160d8061007c6000396000f3fe60806040526004361061007b5760003560e01c8063ae6f17e01161004e578063ae6f17e01461010c578063c10f270014610123578063cd905dff1461014c578063f83f11c0146101775761007b565b8063339d2590146100805780635f1cc0e61461008a57806363e29a3f146100b557806364b4f751146100e1575b600080fd5b6100886101a0565b005b34801561009657600080fd5b5061009f61028d565b6040516100ac919061100c565b60405180910390f35b3480156100c157600080fd5b506100ca6103cd565b6040516100d8929190611042565b60405180910390f35b3480156100ed57600080fd5b506100f66103db565b60405161010391906110eb565b60405180910390f35b34801561011857600080fd5b506101216103e7565b005b34801561012f57600080fd5b5061014a60048036038101906101459190610ca7565b6103e9565b005b34801561015857600080fd5b50610161610778565b60405161016e9190611027565b60405180910390f35b34801561018357600080fd5b5061019e60048036038101906101999190610c38565b610781565b005b670de0b6b3a76400003410156101eb576040517f08c379a00000000000000000000000000000000000000000000000000000000081526004016101e2906110ab565b60405180910390fd5b60006101f633610803565b9050604051806040016040528060011515815260200182815250600360003373ffffffffffffffffffffffffffffffffffffffff1673ffffffffffffffffffffffffffffffffffffffff16815260200190815260200160002060008201518160000160006101000a81548160ff021916908315150217905550602082015181600101906003610286929190610ab0565b5090505050565b610295610b4a565b600360003373ffffffffffffffffffffffffffffffffffffffff1673ffffffffffffffffffffffffffffffffffffffff16815260200190815260200160002060000160009054906101000a900460ff16610324576040517f08c379a000000000000000000000000000000000000000000000000000000000815260040161031b9061108b565b60405180910390fd5b600360003373ffffffffffffffffffffffffffffffffffffffff1673ffffffffffffffffffffffffffffffffffffffff1681526020019081526020016000206001016003806020026040519081016040528092919082600380156103c3576020028201916000905b82829054906101000a900460ff1660ff168152602001906001019060208260000104928301926001038202915080841161038c5790505b5050505050905090565b600080816000915091509091565b670de0b6b3a764000081565b565b8460ff16600360003373ffffffffffffffffffffffffffffffffffffffff1673ffffffffffffffffffffffffffffffffffffffff16815260200190815260200160002060010160006003811061044257610441611405565b5b602091828204019190069054906101000a900460ff1660ff1614806104d657508460ff16600360003373ffffffffffffffffffffffffffffffffffffffff1673ffffffffffffffffffffffffffffffffffffffff1681526020019081526020016000206001016001600381106104bb576104ba611405565b5b602091828204019190069054906101000a900460ff1660ff16145b8061055057508460ff16600360003373ffffffffffffffffffffffffffffffffffffffff1673ffffffffffffffffffffffffffffffffffffffff16815260200190815260200160002060010160026003811061053557610534611405565b5b602091828204019190069054906101000a900460ff1660ff16145b61058f576040517f08c379a0000000000000000000000000000000000000000000000000000000008152600401610586906110cb565b60405180910390fd5b6000858585856040516020016105a89493929190610f76565b6040516020818303038152906040528051906020012090506004600082815260200190815260200160002060000160149054906101000a900460ff16610623576040517f08c379a000000000000000000000000000000000000000000000000000000000815260040161061a9061106b565b60405180910390fd5b6004600082815260200190815260200160002060010160008360ff1660ff168152602001908152602001600020339080600181540180825580915050600190039060005260206000200160009091909190916101000a81548173ffffffffffffffffffffffffffffffffffffffff021916908373ffffffffffffffffffffffffffffffffffffffff1602179055507f43c853095c2752648493c88b4baac4d580d2594ffb00c6f1d4242d844514f783858585856040516106e69493929190610fc0565b60405180910390a160036004600083815260200190815260200160002060010160008460ff1660ff1681526020019081526020016000208054905010610770577fe23f5229de535c091e3b7bec2665f5d698192d3b31393066e8987b7a05076b6c8585858560405161075b9493929190610fc0565b60405180910390a161076f858585856109de565b5b505050505050565b60006001905090565b600061078c336109e4565b90506000818585856040516020016107a79493929190610f76565b6040516020818303038152906040528051906020012090507f3ed01f2c3fc24c6b329d931e35b03e390d23497d22b3f90e15b600343e93df11828686866040516107f49493929190611106565b60405180910390a15050505050565b61080b610b4a565b610814826109e4565b8160006003811061082857610827611405565b5b602002019060ff16908160ff16815250508060006003811061084d5761084c611405565b5b60200201518160016003811061086657610865611405565b5b602002019060ff16908160ff16815250505b8060006003811061088c5761088b611405565b5b602002015160ff16816001600381106108a8576108a7611405565b5b602002015160ff1614156108e9576108bf826109e4565b816001600381106108d3576108d2611405565b5b602002019060ff16908160ff1681525050610878565b806001600381106108fd576108fc611405565b5b60200201518160026003811061091657610915611405565b5b602002019060ff16908160ff16815250505b8060006003811061093c5761093b611405565b5b602002015160ff168160026003811061095857610957611405565b5b602002015160ff1614806109a157508060016003811061097b5761097a611405565b5b602002015160ff168160026003811061099757610996611405565b5b602002015160ff16145b156109d9576109af826109e4565b816002600381106109c3576109c2611405565b5b602002019060ff16908160ff1681525050610928565b919050565b50505050565b600080600a905060008160ff166002600081819054906101000a900460ff1680929190610a1090611302565b91906101000a81548160ff021916908360ff16021790555060ff1643610a3691906111fc565b4085604051602001610a49929190610f4a565b6040516020818303038152906040528051906020012060001c610a6c9190611376565b905060fa600260009054906101000a900460ff1660ff161115610aa6576000600260006101000a81548160ff021916908360ff1602179055505b8092505050919050565b826003601f01602090048101928215610b395791602002820160005b83821115610b0a57835183826101000a81548160ff021916908360ff1602179055509260200192600101602081600001049283019260010302610acc565b8015610b375782816101000a81549060ff0219169055600101602081600001049283019260010302610b0a565b505b509050610b469190610b6c565b5090565b6040518060600160405280600390602082028036833780820191505090505090565b5b80821115610b85576000816000905550600101610b6d565b5090565b6000610b9c610b9784611177565b611152565b905082815260208101848484011115610bb857610bb7611468565b5b610bc384828561128f565b509392505050565b600081359050610bda81611592565b92915050565b600082601f830112610bf557610bf4611463565b5b8135610c05848260208601610b89565b91505092915050565b600081359050610c1d816115a9565b92915050565b600081359050610c32816115c0565b92915050565b600080600060608486031215610c5157610c50611472565b5b6000610c5f86828701610bcb565b935050602084013567ffffffffffffffff811115610c8057610c7f61146d565b5b610c8c86828701610be0565b9250506040610c9d86828701610c0e565b9150509250925092565b600080600080600060a08688031215610cc357610cc2611472565b5b6000610cd188828901610c23565b9550506020610ce288828901610bcb565b945050604086013567ffffffffffffffff811115610d0357610d0261146d565b5b610d0f88828901610be0565b9350506060610d2088828901610c0e565b9250506080610d3188828901610c23565b9150509295509295909350565b6000610d4a8383610f15565b60208301905092915050565b610d5f81611230565b82525050565b610d76610d7182611230565b61132c565b82525050565b610d85816111b2565b610d8f81846111d5565b9250610d9a826111a8565b8060005b83811015610dcb578151610db28782610d3e565b9650610dbd836111c8565b925050600181019050610d9e565b505050505050565b610ddc81611242565b82525050565b610df3610dee8261124e565b61133e565b82525050565b6000610e04826111bd565b610e0e81856111e0565b9350610e1e81856020860161129e565b610e2781611477565b840191505092915050565b6000610e3d826111bd565b610e4781856111f1565b9350610e5781856020860161129e565b80840191505092915050565b6000610e70602f836111e0565b9150610e7b826114a2565b604082019050919050565b6000610e93601b836111e0565b9150610e9e826114f1565b602082019050919050565b6000610eb6601c836111e0565b9150610ec18261151a565b602082019050919050565b6000610ed96023836111e0565b9150610ee482611543565b604082019050919050565b610ef881611278565b82525050565b610f0f610f0a82611278565b61135a565b82525050565b610f1e81611282565b82525050565b610f2d81611282565b82525050565b610f44610f3f82611282565b611364565b82525050565b6000610f568285610de2565b602082019150610f668284610d65565b6014820191508190509392505050565b6000610f828287610f33565b600182019150610f928286610d65565b601482019150610fa28285610e32565b9150610fae8284610efe565b60208201915081905095945050505050565b6000608082019050610fd56000830187610d56565b8181036020830152610fe78186610df9565b9050610ff66040830185610eef565b6110036060830184610f24565b95945050505050565b60006060820190506110216000830184610d7c565b92915050565b600060208201905061103c6000830184610dd3565b92915050565b60006040820190506110576000830185610dd3565b6110646020830184610eef565b9392505050565b6000602082019050818103600083015261108481610e63565b9050919050565b600060208201905081810360008301526110a481610e86565b9050919050565b600060208201905081810360008301526110c481610ea9565b9050919050565b600060208201905081810360008301526110e481610ecc565b9050919050565b60006020820190506111006000830184610eef565b92915050565b600060808201905061111b6000830187610f24565b6111286020830186610d56565b818103604083015261113a8185610df9565b90506111496060830184610eef565b95945050505050565b600061115c61116d565b905061116882826112d1565b919050565b6000604051905090565b600067ffffffffffffffff82111561119257611191611434565b5b61119b82611477565b9050602081019050919050565b6000819050919050565b600060039050919050565b600081519050919050565b6000602082019050919050565b600081905092915050565b600082825260208201905092915050565b600081905092915050565b600061120782611278565b915061121283611278565b925082821015611225576112246113a7565b5b828203905092915050565b600061123b82611258565b9050919050565b60008115159050919050565b6000819050919050565b600073ffffffffffffffffffffffffffffffffffffffff82169050919050565b6000819050919050565b600060ff82169050919050565b82818337600083830152505050565b60005b838110156112bc5780820151818401526020810190506112a1565b838111156112cb576000848401525b50505050565b6112da82611477565b810181811067ffffffffffffffff821117156112f9576112f8611434565b5b80604052505050565b600061130d82611282565b915060ff821415611321576113206113a7565b5b600182019050919050565b600061133782611348565b9050919050565b6000819050919050565b600061135382611495565b9050919050565b6000819050919050565b600061136f82611488565b9050919050565b600061138182611278565b915061138c83611278565b92508261139c5761139b6113d6565b5b828206905092915050565b7f4e487b7100000000000000000000000000000000000000000000000000000000600052601160045260246000fd5b7f4e487b7100000000000000000000000000000000000000000000000000000000600052601260045260246000fd5b7f4e487b7100000000000000000000000000000000000000000000000000000000600052603260045260246000fd5b7f4e487b7100000000000000000000000000000000000000000000000000000000600052604160045260246000fd5b600080fd5b600080fd5b600080fd5b600080fd5b6000601f19601f8301169050919050565b60008160f81b9050919050565b60008160601b9050919050565b7f466c69676874206f722074696d657374616d7020646f206e6f74206d6174636860008201527f206f7261636c6520726571756573740000000000000000000000000000000000602082015250565b7f4e6f74207265676973746572656420617320616e206f7261636c650000000000600082015250565b7f526567697374726174696f6e2066656520697320726571756972656400000000600082015250565b7f496e64657820646f6573206e6f74206d61746368206f7261636c65207265717560008201527f6573740000000000000000000000000000000000000000000000000000000000602082015250565b61159b81611230565b81146115a657600080fd5b50565b6115b281611278565b81146115bd57600080fd5b50565b6115c981611282565b81146115d457600080fd5b5056fea26469706673582212209cd805768ecbdb7100291519d0377dc49fa3d14aaa7e05043bd09fd02c02da7a64736f6c63430008060033",
  "immutableReferences": {},
  "source": "pragma solidity ^0.8.6;\n\n// It's important to avoid vulnerabilities due to numeric overflow bugs\n// OpenZeppelin's SafeMath library, when used correctly, protects agains such bugs\n// More info: https://www.nccgroup.trust/us/about-us/newsroom-and-events/blog/2018/november/smart-contract-insecurity-bad-arithmetic/\n\nimport \"@openzeppelin/contracts/utils/math/SafeMath.sol\";\n\n/************************************************** */\n/* FlightSurety Smart Contract                      */\n/************************************************** */\ncontract FlightSuretyApp {\n    using SafeMath for uint256; // Allow SafeMath functions to be called for all uint256 types (similar to \"prototype\" in Javascript)\n\n    /********************************************************************************************/\n    /*                                       DATA VARIABLES                                     */\n    /********************************************************************************************/\n\n    // Flight status codees\n    uint8 private constant STATUS_CODE_UNKNOWN = 0;\n    uint8 private constant STATUS_CODE_ON_TIME = 10;\n    uint8 private constant STATUS_CODE_LATE_AIRLINE = 20;\n    uint8 private constant STATUS_CODE_LATE_WEATHER = 30;\n    uint8 private constant STATUS_CODE_LATE_TECHNICAL = 40;\n    uint8 private constant STATUS_CODE_LATE_OTHER = 50;\n\n    address private contractOwner; // Account used to deploy contract\n\n    struct Flight {\n        bool isRegistered;\n        uint8 statusCode;\n        uint256 updatedTimestamp;\n        address airline;\n    }\n    mapping(bytes32 => Flight) private flights;\n\n    /********************************************************************************************/\n    /*                                       FUNCTION MODIFIERS                                 */\n    /********************************************************************************************/\n\n    // Modifiers help avoid duplication of code. They are typically used to validate something\n    // before a function is allowed to be executed.\n\n    /**\n     * @dev Modifier that requires the \"operational\" boolean variable to be \"true\"\n     *      This is used on all state changing functions to pause the contract in\n     *      the event there is an issue that needs to be fixed\n     */\n    modifier requireIsOperational() {\n        // Modify to call data contract's status\n        require(true, \"Contract is currently not operational\");\n        _; // All modifiers require an \"_\" which indicates where the function body will be added\n    }\n\n    /**\n     * @dev Modifier that requires the \"ContractOwner\" account to be the function caller\n     */\n    modifier requireContractOwner() {\n        require(msg.sender == contractOwner, \"Caller is not contract owner\");\n        _;\n    }\n\n    /********************************************************************************************/\n    /*                                       CONSTRUCTOR                                        */\n    /********************************************************************************************/\n\n    /**\n     * @dev Contract constructor\n     *\n     */\n    constructor() public {\n        contractOwner = msg.sender;\n    }\n\n    /********************************************************************************************/\n    /*                                       UTILITY FUNCTIONS                                  */\n    /********************************************************************************************/\n\n    function isOperational() public pure returns (bool) {\n        return true; // Modify to call data contract's status\n    }\n\n    /********************************************************************************************/\n    /*                                     SMART CONTRACT FUNCTIONS                             */\n    /********************************************************************************************/\n\n    /**\n     * @dev Add an airline to the registration queue\n     *\n     */\n    function registerAirline()\n        external\n        pure\n        returns (bool success, uint256 votes)\n    {\n        return (success, 0);\n    }\n\n    /**\n     * @dev Register a future flight for insuring.\n     *\n     */\n    function registerFlight() external pure {}\n\n    /**\n     * @dev Called after oracle has updated flight status\n     *\n     */\n    function processFlightStatus(\n        address airline,\n        string memory flight,\n        uint256 timestamp,\n        uint8 statusCode\n    ) internal pure {}\n\n    // Generate a request for oracles to fetch flight information\n    function fetchFlightStatus(\n        address airline,\n        string memory flight,\n        uint256 timestamp\n    ) external {\n        uint8 index = getRandomIndex(msg.sender);\n\n        // Generate a unique key for storing the request\n        bytes32 key = keccak256(\n            abi.encodePacked(index, airline, flight, timestamp)\n        );\n\n        emit OracleRequest(index, airline, flight, timestamp);\n    }\n\n    // region ORACLE MANAGEMENT\n\n    // Incremented to add pseudo-randomness at various points\n    uint8 private nonce = 0;\n\n    // Fee to be paid when registering oracle\n    uint256 public constant REGISTRATION_FEE = 1 ether;\n\n    // Number of oracles that must respond for valid status\n    uint256 private constant MIN_RESPONSES = 3;\n\n    struct Oracle {\n        bool isRegistered;\n        uint8[3] indexes;\n    }\n\n    // Track all registered oracles\n    mapping(address => Oracle) private oracles;\n\n    // Model for responses from oracles\n    struct ResponseInfo {\n        address requester; // Account that requested status\n        bool isOpen; // If open, oracle responses are accepted\n        mapping(uint8 => address[]) responses; // Mapping key is the status code reported\n        // This lets us group responses and identify\n        // the response that majority of the oracles\n    }\n\n    // Track all oracle responses\n    // Key = hash(index, flight, timestamp)\n    mapping(bytes32 => ResponseInfo) private oracleResponses;\n\n    // Event fired each time an oracle submits a response\n    event FlightStatusInfo(\n        address airline,\n        string flight,\n        uint256 timestamp,\n        uint8 status\n    );\n\n    event OracleReport(\n        address airline,\n        string flight,\n        uint256 timestamp,\n        uint8 status\n    );\n\n    // Event fired when flight status request is submitted\n    // Oracles track this and if they have a matching index\n    // they fetch data and submit a response\n    event OracleRequest(\n        uint8 index,\n        address airline,\n        string flight,\n        uint256 timestamp\n    );\n\n    // Register an oracle with the contract\n    function registerOracle() external payable {\n        // Require registration fee\n        require(msg.value >= REGISTRATION_FEE, \"Registration fee is required\");\n\n        uint8[3] memory indexes = generateIndexes(msg.sender);\n\n        oracles[msg.sender] = Oracle({isRegistered: true, indexes: indexes});\n    }\n\n    function getMyIndexes() external view returns (uint8[3] memory arrayIndexes) {\n        require(\n            oracles[msg.sender].isRegistered,\n            \"Not registered as an oracle\"\n        );\n\n        arrayIndexes = oracles[msg.sender].indexes;\n    }\n\n    // Called by oracle when a response is available to an outstanding request\n    // For the response to be accepted, there must be a pending request that is open\n    // and matches one of the three Indexes randomly assigned to the oracle at the\n    // time of registration (i.e. uninvited oracles are not welcome)\n    function submitOracleResponse(\n        uint8 index,\n        address airline,\n        string memory flight,\n        uint256 timestamp,\n        uint8 statusCode\n    ) external {\n        require(\n            (oracles[msg.sender].indexes[0] == index) ||\n                (oracles[msg.sender].indexes[1] == index) ||\n                (oracles[msg.sender].indexes[2] == index),\n            \"Index does not match oracle request\"\n        );\n\n        bytes32 key = keccak256(\n            abi.encodePacked(index, airline, flight, timestamp)\n        );\n        require(\n            oracleResponses[key].isOpen,\n            \"Flight or timestamp do not match oracle request\"\n        );\n\n        oracleResponses[key].responses[statusCode].push(msg.sender);\n\n        // Information isn't considered verified until at least MIN_RESPONSES\n        // oracles respond with the *** same *** information\n        emit OracleReport(airline, flight, timestamp, statusCode);\n        if (\n            oracleResponses[key].responses[statusCode].length >= MIN_RESPONSES\n        ) {\n            emit FlightStatusInfo(airline, flight, timestamp, statusCode);\n\n            // Handle flight status as appropriate\n            processFlightStatus(airline, flight, timestamp, statusCode);\n        }\n    }\n\n    function getFlightKey(\n        address airline,\n        string memory flight,\n        uint256 timestamp\n    ) internal pure returns (bytes32) {\n        return keccak256(abi.encodePacked(airline, flight, timestamp));\n    }\n\n    // Returns array of three non-duplicating integers from 0-9\n    function generateIndexes(address account) internal returns (uint8[3] memory indexes) {\n        indexes[0] = getRandomIndex(account);\n\n        indexes[1] = indexes[0];\n        while (indexes[1] == indexes[0]) {\n            indexes[1] = getRandomIndex(account);\n        }\n\n        indexes[2] = indexes[1];\n        while ((indexes[2] == indexes[0]) || (indexes[2] == indexes[1])) {\n            indexes[2] = getRandomIndex(account);\n        }\n    }\n\n    // Returns array of three non-duplicating integers from 0-9\n    function getRandomIndex(address account) internal returns (uint8) {\n        uint8 maxValue = 10;\n\n        // Pseudo random number...the incrementing nonce adds variation\n        uint8 random = uint8(\n            uint256(\n                keccak256(\n                    abi.encodePacked(blockhash(block.number - nonce++), account)\n                )\n            ) % maxValue\n        );\n\n        if (nonce > 250) {\n            nonce = 0; // Can only fetch blockhashes for last 256 blocks so we adapt\n        }\n\n        return random;\n    }\n\n    // endregion\n}\n",
  "sourcePath": "C:/Users/dines/Downloads/FlightSurety/contracts/FlightSuretyApp.sol",
  "compiler": {
    "name": "solc",
    "version": "0.8.6+commit.11564f7e.Emscripten.clang"
  },
  "schemaVersion": "3.4.1",
  "updatedAt": "2021-07-16T10:41:06.943Z",
  "devdoc": {
    "kind": "dev",
    "methods": {
      "constructor": {
        "details": "Contract constructor"
      },
      "registerAirline()": {
        "details": "Add an airline to the registration queue"
      },
      "registerFlight()": {
        "details": "Register a future flight for insuring."
      }
    },
    "version": 1
  },
  "userdoc": {
    "kind": "user",
    "methods": {},
    "version": 1
  }
}