{
  "contractName": "FlightSuretyData",
  "abi": [
    {
      "inputs": [],
      "stateMutability": "nonpayable",
      "type": "constructor"
    },
    {
      "anonymous": false,
      "inputs": [
        {
          "indexed": true,
          "internalType": "address",
          "name": "oldAddress",
          "type": "address"
        },
        {
          "indexed": true,
          "internalType": "address",
          "name": "newAddress",
          "type": "address"
        }
      ],
      "name": "ChangedcallerContract",
      "type": "event"
    },
    {
      "inputs": [],
      "name": "isOperational",
      "outputs": [
        {
          "internalType": "bool",
          "name": "",
          "type": "bool"
        }
      ],
      "stateMutability": "view",
      "type": "function"
    },
    {
      "inputs": [
        {
          "internalType": "bool",
          "name": "mode",
          "type": "bool"
        }
      ],
      "name": "setOperatingStatus",
      "outputs": [],
      "stateMutability": "nonpayable",
      "type": "function"
    },
    {
      "inputs": [
        {
          "internalType": "address",
          "name": "_callerContract",
          "type": "address"
        }
      ],
      "name": "setcallerContractAddress",
      "outputs": [],
      "stateMutability": "nonpayable",
      "type": "function"
    },
    {
      "inputs": [],
      "name": "getcallerContract",
      "outputs": [
        {
          "internalType": "address",
          "name": "",
          "type": "address"
        }
      ],
      "stateMutability": "view",
      "type": "function"
    },
    {
      "inputs": [
        {
          "internalType": "address",
          "name": "_voterAddress",
          "type": "address"
        },
        {
          "internalType": "address",
          "name": "addressAirline",
          "type": "address"
        },
        {
          "internalType": "string",
          "name": "_airlineName",
          "type": "string"
        },
        {
          "internalType": "bool",
          "name": "consensus",
          "type": "bool"
        }
      ],
      "name": "registerAirline",
      "outputs": [],
      "stateMutability": "nonpayable",
      "type": "function"
    },
    {
      "inputs": [
        {
          "internalType": "address",
          "name": "addressAirline",
          "type": "address"
        }
      ],
      "name": "getAirline",
      "outputs": [
        {
          "internalType": "int8",
          "name": "id",
          "type": "int8"
        },
        {
          "internalType": "string",
          "name": "name",
          "type": "string"
        },
        {
          "internalType": "bool",
          "name": "consensus",
          "type": "bool"
        },
        {
          "internalType": "int8",
          "name": "voteCount",
          "type": "int8"
        },
        {
          "internalType": "bool",
          "name": "activated",
          "type": "bool"
        },
        {
          "internalType": "uint256",
          "name": "balance",
          "type": "uint256"
        }
      ],
      "stateMutability": "view",
      "type": "function"
    },
    {
      "inputs": [
        {
          "internalType": "address",
          "name": "addressAirline",
          "type": "address"
        },
        {
          "internalType": "uint256",
          "name": "amount",
          "type": "uint256"
        }
      ],
      "name": "addAirlineBalance",
      "outputs": [],
      "stateMutability": "nonpayable",
      "type": "function"
    },
    {
      "inputs": [
        {
          "internalType": "address",
          "name": "addressAirline",
          "type": "address"
        }
      ],
      "name": "getAirlineId",
      "outputs": [
        {
          "internalType": "int8",
          "name": "id",
          "type": "int8"
        }
      ],
      "stateMutability": "view",
      "type": "function"
    },
    {
      "inputs": [
        {
          "internalType": "address",
          "name": "addressAirline",
          "type": "address"
        }
      ],
      "name": "approveAirline",
      "outputs": [],
      "stateMutability": "nonpayable",
      "type": "function"
    },
    {
      "inputs": [],
      "name": "gettotalCountAirlines",
      "outputs": [
        {
          "internalType": "int8",
          "name": "count",
          "type": "int8"
        }
      ],
      "stateMutability": "view",
      "type": "function"
    },
    {
      "inputs": [
        {
          "internalType": "address",
          "name": "_voterAddress",
          "type": "address"
        },
        {
          "internalType": "address",
          "name": "addressAirline",
          "type": "address"
        }
      ],
      "name": "voteAirline",
      "outputs": [
        {
          "internalType": "int8",
          "name": "voteCount",
          "type": "int8"
        }
      ],
      "stateMutability": "nonpayable",
      "type": "function"
    },
    {
      "inputs": [
        {
          "internalType": "address",
          "name": "addressAirline",
          "type": "address"
        }
      ],
      "name": "activateAirline",
      "outputs": [],
      "stateMutability": "nonpayable",
      "type": "function"
    },
    {
      "inputs": [
        {
          "internalType": "address",
          "name": "_passengerAddr",
          "type": "address"
        },
        {
          "internalType": "bytes32",
          "name": "_flightKey",
          "type": "bytes32"
        }
      ],
      "name": "getInsurance",
      "outputs": [
        {
          "internalType": "uint256",
          "name": "amount",
          "type": "uint256"
        },
        {
          "internalType": "uint256",
          "name": "claimAmount",
          "type": "uint256"
        },
        {
          "internalType": "uint8",
          "name": "status",
          "type": "uint8"
        }
      ],
      "stateMutability": "view",
      "type": "function"
    },
    {
      "inputs": [
        {
          "internalType": "address",
          "name": "_passengerAddr",
          "type": "address"
        },
        {
          "internalType": "bytes32",
          "name": "_flightKey",
          "type": "bytes32"
        }
      ],
      "name": "withdrawInsurance",
      "outputs": [],
      "stateMutability": "nonpayable",
      "type": "function"
    },
    {
      "inputs": [
        {
          "internalType": "address",
          "name": "_passengerAddr",
          "type": "address"
        },
        {
          "internalType": "bytes32",
          "name": "_flightKey",
          "type": "bytes32"
        },
        {
          "internalType": "uint256",
          "name": "claimAmount",
          "type": "uint256"
        }
      ],
      "name": "claimInsurance",
      "outputs": [],
      "stateMutability": "nonpayable",
      "type": "function"
    },
    {
      "inputs": [
        {
          "internalType": "address",
          "name": "_passengerAddr",
          "type": "address"
        },
        {
          "internalType": "bytes32",
          "name": "_flightKey",
          "type": "bytes32"
        },
        {
          "internalType": "uint256",
          "name": "amount",
          "type": "uint256"
        }
      ],
      "name": "addInsurance",
      "outputs": [],
      "stateMutability": "nonpayable",
      "type": "function"
    }
  ],
  "bytecode": "0x60806040526001600060146101000a81548160ff02191690831515021790555034801561002b57600080fd5b50336000806101000a81548173ffffffffffffffffffffffffffffffffffffffff021916908373ffffffffffffffffffffffffffffffffffffffff1602179055506122bf8061007b6000396000f3fe608060405234801561001057600080fd5b50600436106101005760003560e01c80636c913c8d11610097578063c5323de511610066578063c5323de514610281578063cd905dff146102b1578063e1de0489146102cf578063ff9d3e2d1461030457610100565b80636c913c8d146101f9578063758182881461022b57806382fdc663146102475780639ffd0c341461026557610100565b806335b13799116100d357806335b1379914610189578063419ca9af146101a55780634ef55020146101c15780635784711d146101dd57610100565b806309fcefbc14610105578063110466ed1461013557806333537fc51461015157806334ce66901461016d575b600080fd5b61011f600480360381019061011a919061185a565b610322565b60405161012c9190611c0d565b60405180910390f35b61014f600480360381019061014a9190611a1d565b61037b565b005b61016b6004803603810190610166919061185a565b610426565b005b6101876004803603810190610182919061185a565b610574565b005b6101a3600480360381019061019e91906119dd565b6106b1565b005b6101bf60048036038101906101ba919061185a565b6107ed565b005b6101db60048036038101906101d6919061198a565b61092a565b005b6101f760048036038101906101f2919061194a565b610a68565b005b610213600480360381019061020e919061194a565b610b89565b60405161022293929190611d30565b60405180910390f35b6102456004803603810190610240919061198a565b610bfb565b005b61024f610d59565b60405161025c9190611c0d565b60405180910390f35b61027f600480360381019061027a91906118c7565b610d70565b005b61029b60048036038101906102969190611887565b610fd3565b6040516102a89190611c0d565b60405180910390f35b6102b9611115565b6040516102c69190611bf2565b60405180910390f35b6102e960048036038101906102e4919061185a565b61112b565b6040516102fb96959493929190611c28565b60405180910390f35b61030c611398565b6040516103199190611bd7565b60405180910390f35b6000600460008373ffffffffffffffffffffffffffffffffffffffff1673ffffffffffffffffffffffffffffffffffffffff16815260200190815260200160002060000160009054906101000a900460000b9050919050565b60008054906101000a900473ffffffffffffffffffffffffffffffffffffffff1673ffffffffffffffffffffffffffffffffffffffff163373ffffffffffffffffffffffffffffffffffffffff1614610409576040517f08c379a000000000000000000000000000000000000000000000000000000000815260040161040090611d10565b60405180910390fd5b80600060146101000a81548160ff02191690831515021790555050565b60008054906101000a900473ffffffffffffffffffffffffffffffffffffffff1673ffffffffffffffffffffffffffffffffffffffff163373ffffffffffffffffffffffffffffffffffffffff16146104b4576040517f08c379a00000000000000000000000000000000000000000000000000000000081526004016104ab90611d10565b60405180910390fd5b80600160006101000a81548173ffffffffffffffffffffffffffffffffffffffff021916908373ffffffffffffffffffffffffffffffffffffffff1602179055508073ffffffffffffffffffffffffffffffffffffffff16600160009054906101000a900473ffffffffffffffffffffffffffffffffffffffff1673ffffffffffffffffffffffffffffffffffffffff167f4eed419b583d41019887e6a402d230859bbbdb9f6a3072b9b40c2dac16fbf12760405160405180910390a350565b600060149054906101000a900460ff166105c3576040517f08c379a00000000000000000000000000000000000000000000000000000000081526004016105ba90611cf0565b60405180910390fd5b600160009054906101000a900473ffffffffffffffffffffffffffffffffffffffff1673ffffffffffffffffffffffffffffffffffffffff163373ffffffffffffffffffffffffffffffffffffffff1614610653576040517f08c379a000000000000000000000000000000000000000000000000000000000815260040161064a90611c90565b60405180910390fd5b6001600460008373ffffffffffffffffffffffffffffffffffffffff1673ffffffffffffffffffffffffffffffffffffffff16815260200190815260200160002060020160026101000a81548160ff02191690831515021790555050565b600060149054906101000a900460ff16610700576040517f08c379a00000000000000000000000000000000000000000000000000000000081526004016106f790611cf0565b60405180910390fd5b600160009054906101000a900473ffffffffffffffffffffffffffffffffffffffff1673ffffffffffffffffffffffffffffffffffffffff163373ffffffffffffffffffffffffffffffffffffffff1614610790576040517f08c379a000000000000000000000000000000000000000000000000000000000815260040161078790611c90565b60405180910390fd5b80600460008473ffffffffffffffffffffffffffffffffffffffff1673ffffffffffffffffffffffffffffffffffffffff16815260200190815260200160002060030160008282546107e29190611e4e565b925050819055505050565b600060149054906101000a900460ff1661083c576040517f08c379a000000000000000000000000000000000000000000000000000000000815260040161083390611cf0565b60405180910390fd5b600160009054906101000a900473ffffffffffffffffffffffffffffffffffffffff1673ffffffffffffffffffffffffffffffffffffffff163373ffffffffffffffffffffffffffffffffffffffff16146108cc576040517f08c379a00000000000000000000000000000000000000000000000000000000081526004016108c390611c90565b60405180910390fd5b6001600460008373ffffffffffffffffffffffffffffffffffffffff1673ffffffffffffffffffffffffffffffffffffffff16815260200190815260200160002060020160006101000a81548160ff02191690831515021790555050565b600060149054906101000a900460ff16610979576040517f08c379a000000000000000000000000000000000000000000000000000000000815260040161097090611cf0565b60405180910390fd5b600160009054906101000a900473ffffffffffffffffffffffffffffffffffffffff1673ffffffffffffffffffffffffffffffffffffffff163373ffffffffffffffffffffffffffffffffffffffff1614610a09576040517f08c379a0000000000000000000000000000000000000000000000000000000008152600401610a0090611c90565b60405180910390fd5b6000610a158484611451565b905060016002600083815260200190815260200160002060020160006101000a81548160ff021916908360ff16021790555081600260008381526020019081526020016000206001018190555050505050565b600060149054906101000a900460ff16610ab7576040517f08c379a0000000000000000000000000000000000000000000000000000000008152600401610aae90611cf0565b60405180910390fd5b600160009054906101000a900473ffffffffffffffffffffffffffffffffffffffff1673ffffffffffffffffffffffffffffffffffffffff163373ffffffffffffffffffffffffffffffffffffffff1614610b47576040517f08c379a0000000000000000000000000000000000000000000000000000000008152600401610b3e90611c90565b60405180910390fd5b6000610b538383611451565b9050600280600083815260200190815260200160002060020160006101000a81548160ff021916908360ff160217905550505050565b600080600080610b998686611451565b905060026000828152602001908152602001600020600001549350600260008281526020019081526020016000206001015492506002600082815260200190815260200160002060020160009054906101000a900460ff169150509250925092565b600060149054906101000a900460ff16610c4a576040517f08c379a0000000000000000000000000000000000000000000000000000000008152600401610c4190611cf0565b60405180910390fd5b600160009054906101000a900473ffffffffffffffffffffffffffffffffffffffff1673ffffffffffffffffffffffffffffffffffffffff163373ffffffffffffffffffffffffffffffffffffffff1614610cda576040517f08c379a0000000000000000000000000000000000000000000000000000000008152600401610cd190611c90565b60405180910390fd5b6000610ce68484611451565b9050604051806060016040528083815260200160008152602001600060ff1681525060026000838152602001908152602001600020600082015181600001556020820151816001015560408201518160020160006101000a81548160ff021916908360ff16021790555090505050505050565b6000600360009054906101000a900460000b905090565b600060149054906101000a900460ff16610dbf576040517f08c379a0000000000000000000000000000000000000000000000000000000008152600401610db690611cf0565b60405180910390fd5b600160009054906101000a900473ffffffffffffffffffffffffffffffffffffffff1673ffffffffffffffffffffffffffffffffffffffff163373ffffffffffffffffffffffffffffffffffffffff1614610e4f576040517f08c379a0000000000000000000000000000000000000000000000000000000008152600401610e4690611c90565b60405180910390fd5b610e598484611484565b6001600360008282829054906101000a900460000b610e789190611dd9565b92506101000a81548160ff021916908360000b60ff1602179055506040518060c00160405280600360009054906101000a900460000b60000b81526020018381526020018215158152602001600160000b81526020016000151581526020016000815250600460008573ffffffffffffffffffffffffffffffffffffffff1673ffffffffffffffffffffffffffffffffffffffff16815260200190815260200160002060008201518160000160006101000a81548160ff021916908360000b60ff1602179055506020820151816001019080519060200190610f5b9291906116f3565b5060408201518160020160006101000a81548160ff02191690831515021790555060608201518160020160016101000a81548160ff021916908360000b60ff16021790555060808201518160020160026101000a81548160ff02191690831515021790555060a0820151816003015590505050505050565b60008060149054906101000a900460ff16611023576040517f08c379a000000000000000000000000000000000000000000000000000000000815260040161101a90611cf0565b60405180910390fd5b600160009054906101000a900473ffffffffffffffffffffffffffffffffffffffff1673ffffffffffffffffffffffffffffffffffffffff163373ffffffffffffffffffffffffffffffffffffffff16146110b3576040517f08c379a00000000000000000000000000000000000000000000000000000000081526004016110aa90611c90565b60405180910390fd5b6110bd8383611484565b600460008373ffffffffffffffffffffffffffffffffffffffff1673ffffffffffffffffffffffffffffffffffffffff16815260200190815260200160002060020160019054906101000a900460000b905092915050565b60008060149054906101000a900460ff16905090565b60006060600080600080600460008873ffffffffffffffffffffffffffffffffffffffff1673ffffffffffffffffffffffffffffffffffffffff16815260200190815260200160002060000160009054906101000a900460000b9550600460008873ffffffffffffffffffffffffffffffffffffffff1673ffffffffffffffffffffffffffffffffffffffff16815260200190815260200160002060010180546111d490611f52565b80601f016020809104026020016040519081016040528092919081815260200182805461120090611f52565b801561124d5780601f106112225761010080835404028352916020019161124d565b820191906000526020600020905b81548152906001019060200180831161123057829003601f168201915b50505050509450600460008873ffffffffffffffffffffffffffffffffffffffff1673ffffffffffffffffffffffffffffffffffffffff16815260200190815260200160002060020160009054906101000a900460ff169350600460008873ffffffffffffffffffffffffffffffffffffffff1673ffffffffffffffffffffffffffffffffffffffff16815260200190815260200160002060020160019054906101000a900460000b9250600460008873ffffffffffffffffffffffffffffffffffffffff1673ffffffffffffffffffffffffffffffffffffffff16815260200190815260200160002060020160029054906101000a900460ff169150600460008873ffffffffffffffffffffffffffffffffffffffff1673ffffffffffffffffffffffffffffffffffffffff16815260200190815260200160002060030154905091939550919395565b60008060009054906101000a900473ffffffffffffffffffffffffffffffffffffffff1673ffffffffffffffffffffffffffffffffffffffff163373ffffffffffffffffffffffffffffffffffffffff1614611429576040517f08c379a000000000000000000000000000000000000000000000000000000000815260040161142090611d10565b60405180910390fd5b600160009054906101000a900473ffffffffffffffffffffffffffffffffffffffff16905090565b60008282604051602001611466929190611bab565b60405160208183030381529060405280519060200120905092915050565b6000600360009054906101000a900460000b60000b14806114d157508073ffffffffffffffffffffffffffffffffffffffff168273ffffffffffffffffffffffffffffffffffffffff1614155b611510576040517f08c379a000000000000000000000000000000000000000000000000000000000815260040161150790611cb0565b60405180910390fd5b60001515600560008473ffffffffffffffffffffffffffffffffffffffff1673ffffffffffffffffffffffffffffffffffffffff16815260200190815260200160002060008373ffffffffffffffffffffffffffffffffffffffff1673ffffffffffffffffffffffffffffffffffffffff16815260200190815260200160002060009054906101000a900460ff161515146115e0576040517f08c379a00000000000000000000000000000000000000000000000000000000081526004016115d790611cd0565b60405180910390fd5b6001600560008473ffffffffffffffffffffffffffffffffffffffff1673ffffffffffffffffffffffffffffffffffffffff16815260200190815260200160002060008373ffffffffffffffffffffffffffffffffffffffff1673ffffffffffffffffffffffffffffffffffffffff16815260200190815260200160002060006101000a81548160ff0219169083151502179055506001600460008373ffffffffffffffffffffffffffffffffffffffff1673ffffffffffffffffffffffffffffffffffffffff16815260200190815260200160002060020160018282829054906101000a900460000b6116d49190611dd9565b92506101000a81548160ff021916908360000b60ff1602179055505050565b8280546116ff90611f52565b90600052602060002090601f0160209004810192826117215760008555611768565b82601f1061173a57805160ff1916838001178555611768565b82800160010185558215611768579182015b8281111561176757825182559160200191906001019061174c565b5b5090506117759190611779565b5090565b5b8082111561179257600081600090555060010161177a565b5090565b60006117a96117a484611d8c565b611d67565b9050828152602081018484840111156117c5576117c4612075565b5b6117d0848285611f10565b509392505050565b6000813590506117e78161222d565b92915050565b6000813590506117fc81612244565b92915050565b6000813590506118118161225b565b92915050565b600082601f83011261182c5761182b612070565b5b813561183c848260208601611796565b91505092915050565b60008135905061185481612272565b92915050565b6000602082840312156118705761186f61207f565b5b600061187e848285016117d8565b91505092915050565b6000806040838503121561189e5761189d61207f565b5b60006118ac858286016117d8565b92505060206118bd858286016117d8565b9150509250929050565b600080600080608085870312156118e1576118e061207f565b5b60006118ef878288016117d8565b9450506020611900878288016117d8565b935050604085013567ffffffffffffffff8111156119215761192061207a565b5b61192d87828801611817565b925050606061193e878288016117ed565b91505092959194509250565b600080604083850312156119615761196061207f565b5b600061196f858286016117d8565b925050602061198085828601611802565b9150509250929050565b6000806000606084860312156119a3576119a261207f565b5b60006119b1868287016117d8565b93505060206119c286828701611802565b92505060406119d386828701611845565b9150509250925092565b600080604083850312156119f4576119f361207f565b5b6000611a02858286016117d8565b9250506020611a1385828601611845565b9150509250929050565b600060208284031215611a3357611a3261207f565b5b6000611a41848285016117ed565b91505092915050565b611a5381611ea4565b82525050565b611a6a611a6582611ea4565b611fb5565b82525050565b611a7981611eb6565b82525050565b611a90611a8b82611ec2565b611fc7565b82525050565b611a9f81611ecc565b82525050565b6000611ab082611dbd565b611aba8185611dc8565b9350611aca818560208601611f1f565b611ad381612084565b840191505092915050565b6000611aeb602a83611dc8565b9150611af6826120a2565b604082019050919050565b6000611b0e604183611dc8565b9150611b19826120f1565b606082019050919050565b6000611b31602883611dc8565b9150611b3c82612166565b604082019050919050565b6000611b54602583611dc8565b9150611b5f826121b5565b604082019050919050565b6000611b77601c83611dc8565b9150611b8282612204565b602082019050919050565b611b9681611ef9565b82525050565b611ba581611f03565b82525050565b6000611bb78285611a59565b601482019150611bc78284611a7f565b6020820191508190509392505050565b6000602082019050611bec6000830184611a4a565b92915050565b6000602082019050611c076000830184611a70565b92915050565b6000602082019050611c226000830184611a96565b92915050565b600060c082019050611c3d6000830189611a96565b8181036020830152611c4f8188611aa5565b9050611c5e6040830187611a70565b611c6b6060830186611a96565b611c786080830185611a70565b611c8560a0830184611b8d565b979650505050505050565b60006020820190508181036000830152611ca981611ade565b9050919050565b60006020820190508181036000830152611cc981611b01565b9050919050565b60006020820190508181036000830152611ce981611b24565b9050919050565b60006020820190508181036000830152611d0981611b47565b9050919050565b60006020820190508181036000830152611d2981611b6a565b9050919050565b6000606082019050611d456000830186611b8d565b611d526020830185611b8d565b611d5f6040830184611b9c565b949350505050565b6000611d71611d82565b9050611d7d8282611f84565b919050565b6000604051905090565b600067ffffffffffffffff821115611da757611da6612041565b5b611db082612084565b9050602081019050919050565b600081519050919050565b600082825260208201905092915050565b6000611de482611ecc565b9150611def83611ecc565b925081607f03831360008312151615611e0b57611e0a611fe3565b5b817fffffffffffffffffffffffffffffffffffffffffffffffffffffffffffffff80038312600083121615611e4357611e42611fe3565b5b828201905092915050565b6000611e5982611ef9565b9150611e6483611ef9565b9250827fffffffffffffffffffffffffffffffffffffffffffffffffffffffffffffffff03821115611e9957611e98611fe3565b5b828201905092915050565b6000611eaf82611ed9565b9050919050565b60008115159050919050565b6000819050919050565b60008160000b9050919050565b600073ffffffffffffffffffffffffffffffffffffffff82169050919050565b6000819050919050565b600060ff82169050919050565b82818337600083830152505050565b60005b83811015611f3d578082015181840152602081019050611f22565b83811115611f4c576000848401525b50505050565b60006002820490506001821680611f6a57607f821691505b60208210811415611f7e57611f7d612012565b5b50919050565b611f8d82612084565b810181811067ffffffffffffffff82111715611fac57611fab612041565b5b80604052505050565b6000611fc082611fd1565b9050919050565b6000819050919050565b6000611fdc82612095565b9050919050565b7f4e487b7100000000000000000000000000000000000000000000000000000000600052601160045260246000fd5b7f4e487b7100000000000000000000000000000000000000000000000000000000600052602260045260246000fd5b7f4e487b7100000000000000000000000000000000000000000000000000000000600052604160045260246000fd5b600080fd5b600080fd5b600080fd5b600080fd5b6000601f19601f8301169050919050565b60008160601b9050919050565b7f43616c6c6572206973206e6f742074686520466c69676874537572657479417060008201527f7020636f6e747261637400000000000000000000000000000000000000000000602082015250565b7f43616e277420766f7465206f6e20796f7572206f776e2065786365707420776860008201527f656e20746865206f776e657220637265617465732074686520636f6e7472616360208201527f7400000000000000000000000000000000000000000000000000000000000000604082015250565b7f566f7465722068617320616c726561647920766f74656420666f72207468697360008201527f206169726c696e65000000000000000000000000000000000000000000000000602082015250565b7f436f6e74726163742069732063757272656e746c79206e6f74206f706572617460008201527f696f6e616c000000000000000000000000000000000000000000000000000000602082015250565b7f43616c6c6572206973206e6f7420636f6e7472616374206f776e657200000000600082015250565b61223681611ea4565b811461224157600080fd5b50565b61224d81611eb6565b811461225857600080fd5b50565b61226481611ec2565b811461226f57600080fd5b50565b61227b81611ef9565b811461228657600080fd5b5056fea2646970667358221220bbc6ad6c902941f05beabfc25fdd0db30d1c60ce25c4c51a06e630af3700b13964736f6c63430008060033",
  "immutableReferences": {},
  "source": "pragma solidity ^0.8.6;\n\nimport \"@openzeppelin/contracts/utils/math/SafeMath.sol\";\n\ncontract FlightSuretyData {\n    using SafeMath for uint256;\n    /********************************************************************************************/\n    /*                                       DATA VARIABLES                                     */\n    /********************************************************************************************/\n\n    address private contractOwner; // Account used to deploy contract\n    bool private operational = true; // Blocks all state changes throughout the contract if false\n    address private callerContract; // The deployed App contract address which can call this Data Contract\n\n    struct Insurance {\n        uint256 amount;\n        uint256 claimAmount;\n        uint8 status;\n    }\n\n    struct Airline {\n        int8 id;\n        string name;\n        bool consensus;\n        int8 voteCount;\n        bool activated;\n        uint256 balance;\n    }\n\n    uint8 private constant BOUGHT_INSURANCE = 0;\n    uint8 private constant CLAIMED_INSURANCE = 1;\n    uint8 private constant WITHDRAWN_INSURANCE = 2;\n\n    mapping(bytes32 => Insurance) insurances; // key => Insurance\n    int8 totalCountAirlines; // number of airlines\n\n    mapping(address => Airline) airlines; // airlineAddress => Airline\n    mapping(address => mapping(address => bool)) votes; // voterAddress => airlineAddress\n\n    /********************************************************************************************/\n    /*                                       EVENT DEFINITIONS                                  */\n    /********************************************************************************************/\n    event ChangedcallerContract(\n        address indexed oldAddress,\n        address indexed newAddress\n    );\n\n    /********************************************************************************************/\n    /*                                       Constructor                                        */\n    /********************************************************************************************/\n\n    /**\n     * @dev Constructor\n     *      The deploying account becomes contractOwner\n     */\n    constructor() {\n        contractOwner = msg.sender;\n    }\n\n    /********************************************************************************************/\n    /*                                       FUNCTION MODIFIERS                                 */\n    /********************************************************************************************/\n\n    // Modifiers help avoid duplication of code. They are typically used to validate something\n    // before a function is allowed to be executed.\n\n    /**\n     * @dev Modifier that requires the \"operational\" boolean variable to be \"true\"\n     *      This is used on all state changing functions to pause the contract in\n     *      the event there is an issue that needs to be fixed\n     */\n    modifier requireIsOperational() {\n        require(operational, \"Contract is currently not operational\");\n        _; // All modifiers require an \"_\" which indicates where the function body will be added\n    }\n\n    /**\n     * @dev Modifier that requires the \"ContractOwner\" account to be the function caller\n     */\n    modifier requireContractOwner() {\n        require(msg.sender == contractOwner, \"Caller is not contract owner\");\n        _;\n    }\n\n    /**\n     * @dev Modifier that requires the callerContract to be the function caller\n     */\n    modifier requireCallerContract() {\n        require(\n            msg.sender == callerContract,\n            \"Caller is not the FlightSuretyApp contract\"\n        );\n        _;\n    }\n\n    /********************************************************************************************/\n    /*                                       UTILITY FUNCTIONS                                  */\n    /********************************************************************************************/\n\n    /**\n     * @dev Get operating status of contract\n     *\n     * @return A bool that is the current operating status\n     */\n    function isOperational() external view returns (bool) {\n        return operational;\n    }\n\n    /**\n     * @dev Sets contract operations on/off\n     *\n     * When operational mode is disabled, all write transactions except for this one will fail\n     */\n    function setOperatingStatus(bool mode) external requireContractOwner {\n        operational = mode;\n    }\n\n    /**\n     * @dev Sets app contract address\n     *\n     * This allows contract owner to change app contract address, in case a new app is present\n     */\n    function setcallerContractAddress(address _callerContract) external requireContractOwner {\n        callerContract = _callerContract;\n\n        emit ChangedcallerContract(callerContract, _callerContract);\n    }\n\n    /**\n     * @dev Get current app contract address\n     *\n     * This allows contract owner to fetch current app contract address\n     */\n    function getcallerContract() external view requireContractOwner returns (address) {\n        return callerContract;\n    }\n\n    /********************************************************************************************/\n    /*                                     SMART CONTRACT FUNCTIONS                             */\n    /********************************************************************************************/\n\n    /**\n     * @dev Add an airline to the registration queue\n     *      Can only be called from FlightSuretyApp contract\n     *\n     */\n    function registerAirline(address _voterAddress, address addressAirline, string memory _airlineName, bool consensus) external requireIsOperational requireCallerContract {\n\n        _vote(_voterAddress, addressAirline);\n        totalCountAirlines += 1;\n        // airlines count is incremented\n\n        airlines[addressAirline] = Airline({id: totalCountAirlines, name: _airlineName, consensus: consensus, balance: 0, activated: false, voteCount: 1 });\n    }\n\n    /**\n     * @dev Get details of the airline from its address\n     */\n    function getAirline(address addressAirline) external view\n      returns (\n          int8 id,\n          string memory name,\n          bool consensus,\n          int8 voteCount,\n          bool activated,\n          uint256 balance ) {\n\n        id = airlines[addressAirline].id;\n        name = airlines[addressAirline].name;\n        consensus = airlines[addressAirline].consensus;\n        voteCount = airlines[addressAirline].voteCount;\n        activated = airlines[addressAirline].activated;\n        balance = airlines[addressAirline].balance;\n    }\n\n    /**\n     * @dev Fund the balance for airline\n     */\n    function addAirlineBalance(address addressAirline, uint256 amount) external requireIsOperational requireCallerContract {\n        airlines[addressAirline].balance += amount;\n    }\n\n    /**\n     * @dev Get airline id from its address\n     */\n    function getAirlineId(address addressAirline) external view returns (int8 id) {\n        id = airlines[addressAirline].id;\n    }\n\n    /**\n     * @dev Approve an airline to be a part of this Flight insurance\n     */\n    function approveAirline(address addressAirline) external requireIsOperational requireCallerContract {\n        airlines[addressAirline].consensus = true;\n    }\n\n    /**\n     * @dev Get the total number of airlines registered\n     */\n    function gettotalCountAirlines() external view returns (int8 count) {\n        count = totalCountAirlines;\n    }\n\n    /**\n     * @dev Vote for an airline\n     */\n    function voteAirline(address _voterAddress, address addressAirline) external requireIsOperational requireCallerContract returns (int8 voteCount) {\n        \n        _vote(_voterAddress, addressAirline);\n        voteCount = airlines[addressAirline].voteCount;\n    }\n\n    /**\n     * @dev An airline with the given address will be activated\n     */\n    function activateAirline(address addressAirline) external requireIsOperational requireCallerContract {\n        airlines[addressAirline].activated = true;\n    }\n\n    /**\n     * @dev Get the insurance details for the passenger and flight\n     */\n    function getInsurance(address _passengerAddr, bytes32 _flightKey) external view\n      returns (\n          uint256 amount,\n          uint256 claimAmount,\n          uint8 status ) {\n\n        bytes32 key = getInsuranceKey(_passengerAddr, _flightKey);\n\n        amount = insurances[key].amount;\n        claimAmount = insurances[key].claimAmount;\n        status = insurances[key].status;\n    }\n\n    /**\n     * @dev Withdraws the insurance claimed\n     */\n    function withdrawInsurance(address _passengerAddr, bytes32 _flightKey) external requireIsOperational requireCallerContract {\n        bytes32 key = getInsuranceKey(_passengerAddr, _flightKey);\n        insurances[key].status = WITHDRAWN_INSURANCE;\n    }\n\n    /**\n     * @dev To claim the insurance\n     */\n    function claimInsurance(address _passengerAddr, bytes32 _flightKey, uint256 claimAmount) external requireIsOperational requireCallerContract {\n\n        bytes32 key = getInsuranceKey(_passengerAddr, _flightKey);\n        insurances[key].status = CLAIMED_INSURANCE;\n        insurances[key].claimAmount = claimAmount;\n    }\n\n    /**\n     * @dev When a passenger buys an insurance, this function adds the insurance for the passenger\n     * Called in the app contract when the passenger buys insurance for a particular flight\n     */\n    function addInsurance(address _passengerAddr, bytes32 _flightKey, uint256 amount) external requireIsOperational requireCallerContract {\n\n        bytes32 key = getInsuranceKey(_passengerAddr, _flightKey);\n\n        // Key is used to keep track of the insurances for a specific passenfer and flight in the insurance mapping\n\n        insurances[key] = Insurance({\n            amount: amount,\n            claimAmount: 0,\n            status: BOUGHT_INSURANCE\n        });\n    }\n\n    /**\n     * @dev Key is calculated to be unique for each flight by using hashing algorithm\n     */\n    function getInsuranceKey(address _passengerAddr, bytes32 _flightKey) private pure returns (bytes32) {\n        return keccak256(abi.encodePacked(_passengerAddr, _flightKey));\n    }\n\n    /**\n     * @dev Voter's vote is added to an airline\n     */\n    function _vote(address _voterAddress, address addressAirline) private {\n        require(\n            (totalCountAirlines == 0) || (_voterAddress != addressAirline),\n            \"Can't vote on your own except when the owner creates the contract\"\n        );\n        // Allows the owner to vote himself when contract is created\n\n        require(votes[_voterAddress][addressAirline] == false, \"Voter has already voted for this airline\");\n        votes[_voterAddress][addressAirline] = true; // votes mapping is updated to record the voting\n        airlines[addressAirline].voteCount += 1; // votecount for the airline increased by 1\n    }\n}\n",
  "sourcePath": "C:/Users/dines/Downloads/FlightSurety/contracts/FlightSuretyData.sol",
  "compiler": {
    "name": "solc",
    "version": "0.8.6+commit.11564f7e.Emscripten.clang"
  },
  "schemaVersion": "3.4.1",
  "updatedAt": "2021-07-16T10:41:06.955Z",
  "devdoc": {
    "kind": "dev",
    "methods": {
      "activateAirline(address)": {
        "details": "An airline with the given address will be activated"
      },
      "addAirlineBalance(address,uint256)": {
        "details": "Fund the balance for airline"
      },
      "addInsurance(address,bytes32,uint256)": {
        "details": "When a passenger buys an insurance, this function adds the insurance for the passenger Called in the app contract when the passenger buys insurance for a particular flight"
      },
      "approveAirline(address)": {
        "details": "Approve an airline to be a part of this Flight insurance"
      },
      "claimInsurance(address,bytes32,uint256)": {
        "details": "To claim the insurance"
      },
      "constructor": {
        "details": "Constructor      The deploying account becomes contractOwner"
      },
      "getAirline(address)": {
        "details": "Get details of the airline from its address"
      },
      "getAirlineId(address)": {
        "details": "Get airline id from its address"
      },
      "getInsurance(address,bytes32)": {
        "details": "Get the insurance details for the passenger and flight"
      },
      "getcallerContract()": {
        "details": "Get current app contract address This allows contract owner to fetch current app contract address"
      },
      "gettotalCountAirlines()": {
        "details": "Get the total number of airlines registered"
      },
      "isOperational()": {
        "details": "Get operating status of contract",
        "returns": {
          "_0": "A bool that is the current operating status"
        }
      },
      "registerAirline(address,address,string,bool)": {
        "details": "Add an airline to the registration queue      Can only be called from FlightSuretyApp contract"
      },
      "setOperatingStatus(bool)": {
        "details": "Sets contract operations on/off When operational mode is disabled, all write transactions except for this one will fail"
      },
      "setcallerContractAddress(address)": {
        "details": "Sets app contract address This allows contract owner to change app contract address, in case a new app is present"
      },
      "voteAirline(address,address)": {
        "details": "Vote for an airline"
      },
      "withdrawInsurance(address,bytes32)": {
        "details": "Withdraws the insurance claimed"
      }
    },
    "version": 1
  },
  "userdoc": {
    "kind": "user",
    "methods": {},
    "version": 1
  }
}