{
  "contractName": "FlightSuretyData",
  "abi": [
    {
      "inputs": [],
      "stateMutability": "nonpayable",
      "type": "constructor"
    },
    {
      "anonymous": false,
      "inputs": [
        {
          "indexed": true,
          "internalType": "address",
          "name": "oldAddress",
          "type": "address"
        },
        {
          "indexed": true,
          "internalType": "address",
          "name": "newAddress",
          "type": "address"
        }
      ],
      "name": "ChangedCallerContract",
      "type": "event"
    },
    {
      "inputs": [],
      "name": "isOperational",
      "outputs": [
        {
          "internalType": "bool",
          "name": "",
          "type": "bool"
        }
      ],
      "stateMutability": "view",
      "type": "function",
      "constant": true
    },
    {
      "inputs": [
        {
          "internalType": "bool",
          "name": "mode",
          "type": "bool"
        }
      ],
      "name": "setOperatingStatus",
      "outputs": [],
      "stateMutability": "nonpayable",
      "type": "function"
    },
    {
      "inputs": [
        {
          "internalType": "address",
          "name": "_callerContract",
          "type": "address"
        }
      ],
      "name": "setCallerContractAddress",
      "outputs": [],
      "stateMutability": "nonpayable",
      "type": "function"
    },
    {
      "inputs": [],
      "name": "getCallerContract",
      "outputs": [
        {
          "internalType": "address",
          "name": "",
          "type": "address"
        }
      ],
      "stateMutability": "view",
      "type": "function",
      "constant": true
    },
    {
      "inputs": [
        {
          "internalType": "address",
          "name": "_voterAddress",
          "type": "address"
        },
        {
          "internalType": "address",
          "name": "addressAirline",
          "type": "address"
        },
        {
          "internalType": "string",
          "name": "_airlineName",
          "type": "string"
        },
        {
          "internalType": "bool",
          "name": "consensus",
          "type": "bool"
        }
      ],
      "name": "registerAirline",
      "outputs": [],
      "stateMutability": "nonpayable",
      "type": "function"
    },
    {
      "inputs": [
        {
          "internalType": "address",
          "name": "addressAirline",
          "type": "address"
        }
      ],
      "name": "getAirline",
      "outputs": [
        {
          "internalType": "uint8",
          "name": "id",
          "type": "uint8"
        },
        {
          "internalType": "string",
          "name": "name",
          "type": "string"
        },
        {
          "internalType": "bool",
          "name": "consensus",
          "type": "bool"
        },
        {
          "internalType": "int8",
          "name": "voteCount",
          "type": "int8"
        },
        {
          "internalType": "bool",
          "name": "activated",
          "type": "bool"
        },
        {
          "internalType": "uint256",
          "name": "balance",
          "type": "uint256"
        }
      ],
      "stateMutability": "view",
      "type": "function",
      "constant": true
    },
    {
      "inputs": [
        {
          "internalType": "address",
          "name": "addressAirline",
          "type": "address"
        },
        {
          "internalType": "uint256",
          "name": "amount",
          "type": "uint256"
        }
      ],
      "name": "addAirlineBalance",
      "outputs": [],
      "stateMutability": "nonpayable",
      "type": "function"
    },
    {
      "inputs": [
        {
          "internalType": "address",
          "name": "addressAirline",
          "type": "address"
        }
      ],
      "name": "getAirlineId",
      "outputs": [
        {
          "internalType": "uint8",
          "name": "id",
          "type": "uint8"
        }
      ],
      "stateMutability": "view",
      "type": "function",
      "constant": true
    },
    {
      "inputs": [
        {
          "internalType": "address",
          "name": "addressAirline",
          "type": "address"
        }
      ],
      "name": "approveAirline",
      "outputs": [],
      "stateMutability": "nonpayable",
      "type": "function"
    },
    {
      "inputs": [],
      "name": "getTotalCountAirlines",
      "outputs": [
        {
          "internalType": "uint8",
          "name": "count",
          "type": "uint8"
        }
      ],
      "stateMutability": "view",
      "type": "function",
      "constant": true
    },
    {
      "inputs": [
        {
          "internalType": "address",
          "name": "_voterAddress",
          "type": "address"
        },
        {
          "internalType": "address",
          "name": "addressAirline",
          "type": "address"
        }
      ],
      "name": "voteAirline",
      "outputs": [
        {
          "internalType": "int8",
          "name": "voteCount",
          "type": "int8"
        }
      ],
      "stateMutability": "nonpayable",
      "type": "function"
    },
    {
      "inputs": [
        {
          "internalType": "address",
          "name": "addressAirline",
          "type": "address"
        }
      ],
      "name": "activateAirline",
      "outputs": [],
      "stateMutability": "nonpayable",
      "type": "function"
    },
    {
      "inputs": [
        {
          "internalType": "address",
          "name": "_passengerAddr",
          "type": "address"
        },
        {
          "internalType": "bytes32",
          "name": "_flightKey",
          "type": "bytes32"
        }
      ],
      "name": "getInsurance",
      "outputs": [
        {
          "internalType": "uint256",
          "name": "amount",
          "type": "uint256"
        },
        {
          "internalType": "uint256",
          "name": "claimAmount",
          "type": "uint256"
        },
        {
          "internalType": "uint8",
          "name": "status",
          "type": "uint8"
        }
      ],
      "stateMutability": "view",
      "type": "function",
      "constant": true
    },
    {
      "inputs": [
        {
          "internalType": "address",
          "name": "_passengerAddr",
          "type": "address"
        },
        {
          "internalType": "bytes32",
          "name": "_flightKey",
          "type": "bytes32"
        }
      ],
      "name": "withdrawInsurance",
      "outputs": [],
      "stateMutability": "nonpayable",
      "type": "function"
    },
    {
      "inputs": [
        {
          "internalType": "address",
          "name": "_passengerAddr",
          "type": "address"
        },
        {
          "internalType": "bytes32",
          "name": "_flightKey",
          "type": "bytes32"
        },
        {
          "internalType": "uint256",
          "name": "claimAmount",
          "type": "uint256"
        }
      ],
      "name": "claimInsurance",
      "outputs": [],
      "stateMutability": "nonpayable",
      "type": "function"
    },
    {
      "inputs": [
        {
          "internalType": "address",
          "name": "_passengerAddr",
          "type": "address"
        },
        {
          "internalType": "bytes32",
          "name": "_flightKey",
          "type": "bytes32"
        },
        {
          "internalType": "uint256",
          "name": "amount",
          "type": "uint256"
        }
      ],
      "name": "addInsurance",
      "outputs": [],
      "stateMutability": "nonpayable",
      "type": "function"
    }
  ],
  "bytecode": "0x60806040526001600060146101000a81548160ff02191690831515021790555034801561002b57600080fd5b50336000806101000a81548173ffffffffffffffffffffffffffffffffffffffff021916908373ffffffffffffffffffffffffffffffffffffffff16021790555061230b8061007b6000396000f3fe608060405234801561001057600080fd5b50600436106101005760003560e01c80635bfc1c0d11610097578063a571382411610066578063a571382414610283578063c5323de51461029f578063cd905dff146102cf578063e1de0489146102ed57610100565b80635bfc1c0d146101fb5780636c913c8d14610219578063758182881461024b5780639ffd0c341461026757610100565b8063419ca9af116100d3578063419ca9af146101895780634ef55020146101a55780634ff3f41e146101c15780635784711d146101df57610100565b806309fcefbc14610105578063110466ed1461013557806334ce66901461015157806335b137991461016d575b600080fd5b61011f600480360381019061011a9190611854565b610322565b60405161012c9190611cf9565b60405180910390f35b61014f600480360381019061014a9190611a17565b61037b565b005b61016b60048036038101906101669190611854565b610426565b005b610187600480360381019061018291906119d7565b610563565b005b6101a3600480360381019061019e9190611854565b61069f565b005b6101bf60048036038101906101ba9190611984565b6107dc565b005b6101c961091a565b6040516101d69190611cf9565b60405180910390f35b6101f960048036038101906101f49190611944565b610931565b005b610203610a52565b6040516102109190611bd1565b60405180910390f35b610233600480360381019061022e9190611944565b610b0b565b60405161024293929190611cc2565b60405180910390f35b61026560048036038101906102609190611984565b610b7d565b005b610281600480360381019061027c91906118c1565b610cdb565b005b61029d60048036038101906102989190611854565b610f38565b005b6102b960048036038101906102b49190611881565b611086565b6040516102c69190611c07565b60405180910390f35b6102d76111c8565b6040516102e49190611bec565b60405180910390f35b61030760048036038101906103029190611854565b6111de565b60405161031996959493929190611d14565b60405180910390f35b6000600460008373ffffffffffffffffffffffffffffffffffffffff1673ffffffffffffffffffffffffffffffffffffffff16815260200190815260200160002060000160009054906101000a900460ff169050919050565b60008054906101000a900473ffffffffffffffffffffffffffffffffffffffff1673ffffffffffffffffffffffffffffffffffffffff163373ffffffffffffffffffffffffffffffffffffffff1614610409576040517f08c379a000000000000000000000000000000000000000000000000000000000815260040161040090611ca2565b60405180910390fd5b80600060146101000a81548160ff02191690831515021790555050565b600060149054906101000a900460ff16610475576040517f08c379a000000000000000000000000000000000000000000000000000000000815260040161046c90611c82565b60405180910390fd5b600160009054906101000a900473ffffffffffffffffffffffffffffffffffffffff1673ffffffffffffffffffffffffffffffffffffffff163373ffffffffffffffffffffffffffffffffffffffff1614610505576040517f08c379a00000000000000000000000000000000000000000000000000000000081526004016104fc90611c22565b60405180910390fd5b6001600460008373ffffffffffffffffffffffffffffffffffffffff1673ffffffffffffffffffffffffffffffffffffffff16815260200190815260200160002060020160026101000a81548160ff02191690831515021790555050565b600060149054906101000a900460ff166105b2576040517f08c379a00000000000000000000000000000000000000000000000000000000081526004016105a990611c82565b60405180910390fd5b600160009054906101000a900473ffffffffffffffffffffffffffffffffffffffff1673ffffffffffffffffffffffffffffffffffffffff163373ffffffffffffffffffffffffffffffffffffffff1614610642576040517f08c379a000000000000000000000000000000000000000000000000000000000815260040161063990611c22565b60405180910390fd5b80600460008473ffffffffffffffffffffffffffffffffffffffff1673ffffffffffffffffffffffffffffffffffffffff16815260200190815260200160002060030160008282546106949190611e63565b925050819055505050565b600060149054906101000a900460ff166106ee576040517f08c379a00000000000000000000000000000000000000000000000000000000081526004016106e590611c82565b60405180910390fd5b600160009054906101000a900473ffffffffffffffffffffffffffffffffffffffff1673ffffffffffffffffffffffffffffffffffffffff163373ffffffffffffffffffffffffffffffffffffffff161461077e576040517f08c379a000000000000000000000000000000000000000000000000000000000815260040161077590611c22565b60405180910390fd5b6001600460008373ffffffffffffffffffffffffffffffffffffffff1673ffffffffffffffffffffffffffffffffffffffff16815260200190815260200160002060020160006101000a81548160ff02191690831515021790555050565b600060149054906101000a900460ff1661082b576040517f08c379a000000000000000000000000000000000000000000000000000000000815260040161082290611c82565b60405180910390fd5b600160009054906101000a900473ffffffffffffffffffffffffffffffffffffffff1673ffffffffffffffffffffffffffffffffffffffff163373ffffffffffffffffffffffffffffffffffffffff16146108bb576040517f08c379a00000000000000000000000000000000000000000000000000000000081526004016108b290611c22565b60405180910390fd5b60006108c7848461144b565b905060016002600083815260200190815260200160002060020160006101000a81548160ff021916908360ff16021790555081600260008381526020019081526020016000206001018190555050505050565b6000600360009054906101000a900460ff16905090565b600060149054906101000a900460ff16610980576040517f08c379a000000000000000000000000000000000000000000000000000000000815260040161097790611c82565b60405180910390fd5b600160009054906101000a900473ffffffffffffffffffffffffffffffffffffffff1673ffffffffffffffffffffffffffffffffffffffff163373ffffffffffffffffffffffffffffffffffffffff1614610a10576040517f08c379a0000000000000000000000000000000000000000000000000000000008152600401610a0790611c22565b60405180910390fd5b6000610a1c838361144b565b9050600280600083815260200190815260200160002060020160006101000a81548160ff021916908360ff160217905550505050565b60008060009054906101000a900473ffffffffffffffffffffffffffffffffffffffff1673ffffffffffffffffffffffffffffffffffffffff163373ffffffffffffffffffffffffffffffffffffffff1614610ae3576040517f08c379a0000000000000000000000000000000000000000000000000000000008152600401610ada90611ca2565b60405180910390fd5b600160009054906101000a900473ffffffffffffffffffffffffffffffffffffffff16905090565b600080600080610b1b868661144b565b905060026000828152602001908152602001600020600001549350600260008281526020019081526020016000206001015492506002600082815260200190815260200160002060020160009054906101000a900460ff169150509250925092565b600060149054906101000a900460ff16610bcc576040517f08c379a0000000000000000000000000000000000000000000000000000000008152600401610bc390611c82565b60405180910390fd5b600160009054906101000a900473ffffffffffffffffffffffffffffffffffffffff1673ffffffffffffffffffffffffffffffffffffffff163373ffffffffffffffffffffffffffffffffffffffff1614610c5c576040517f08c379a0000000000000000000000000000000000000000000000000000000008152600401610c5390611c22565b60405180910390fd5b6000610c68848461144b565b9050604051806060016040528083815260200160008152602001600060ff1681525060026000838152602001908152602001600020600082015181600001556020820151816001015560408201518160020160006101000a81548160ff021916908360ff16021790555090505050505050565b600060149054906101000a900460ff16610d2a576040517f08c379a0000000000000000000000000000000000000000000000000000000008152600401610d2190611c82565b60405180910390fd5b600160009054906101000a900473ffffffffffffffffffffffffffffffffffffffff1673ffffffffffffffffffffffffffffffffffffffff163373ffffffffffffffffffffffffffffffffffffffff1614610dba576040517f08c379a0000000000000000000000000000000000000000000000000000000008152600401610db190611c22565b60405180910390fd5b610dc4848461147e565b6001600360008282829054906101000a900460ff16610de39190611eb9565b92506101000a81548160ff021916908360ff1602179055506040518060c00160405280600360009054906101000a900460ff1660ff1681526020018381526020018215158152602001600160000b81526020016000151581526020016000815250600460008573ffffffffffffffffffffffffffffffffffffffff1673ffffffffffffffffffffffffffffffffffffffff16815260200190815260200160002060008201518160000160006101000a81548160ff021916908360ff1602179055506020820151816001019080519060200190610ec09291906116ed565b5060408201518160020160006101000a81548160ff02191690831515021790555060608201518160020160016101000a81548160ff021916908360000b60ff16021790555060808201518160020160026101000a81548160ff02191690831515021790555060a0820151816003015590505050505050565b60008054906101000a900473ffffffffffffffffffffffffffffffffffffffff1673ffffffffffffffffffffffffffffffffffffffff163373ffffffffffffffffffffffffffffffffffffffff1614610fc6576040517f08c379a0000000000000000000000000000000000000000000000000000000008152600401610fbd90611ca2565b60405180910390fd5b80600160006101000a81548173ffffffffffffffffffffffffffffffffffffffff021916908373ffffffffffffffffffffffffffffffffffffffff1602179055508073ffffffffffffffffffffffffffffffffffffffff16600160009054906101000a900473ffffffffffffffffffffffffffffffffffffffff1673ffffffffffffffffffffffffffffffffffffffff167f561b58fa91f5f5832f3211a7ba87ad7f71d12b22fd4ed5c2d6624cf282cefcf860405160405180910390a350565b60008060149054906101000a900460ff166110d6576040517f08c379a00000000000000000000000000000000000000000000000000000000081526004016110cd90611c82565b60405180910390fd5b600160009054906101000a900473ffffffffffffffffffffffffffffffffffffffff1673ffffffffffffffffffffffffffffffffffffffff163373ffffffffffffffffffffffffffffffffffffffff1614611166576040517f08c379a000000000000000000000000000000000000000000000000000000000815260040161115d90611c22565b60405180910390fd5b611170838361147e565b600460008373ffffffffffffffffffffffffffffffffffffffff1673ffffffffffffffffffffffffffffffffffffffff16815260200190815260200160002060020160019054906101000a900460000b905092915050565b60008060149054906101000a900460ff16905090565b60006060600080600080600460008873ffffffffffffffffffffffffffffffffffffffff1673ffffffffffffffffffffffffffffffffffffffff16815260200190815260200160002060000160009054906101000a900460ff169550600460008873ffffffffffffffffffffffffffffffffffffffff1673ffffffffffffffffffffffffffffffffffffffff168152602001908152602001600020600101805461128790611f9e565b80601f01602080910402602001604051908101604052809291908181526020018280546112b390611f9e565b80156113005780601f106112d557610100808354040283529160200191611300565b820191906000526020600020905b8154815290600101906020018083116112e357829003601f168201915b50505050509450600460008873ffffffffffffffffffffffffffffffffffffffff1673ffffffffffffffffffffffffffffffffffffffff16815260200190815260200160002060020160009054906101000a900460ff169350600460008873ffffffffffffffffffffffffffffffffffffffff1673ffffffffffffffffffffffffffffffffffffffff16815260200190815260200160002060020160019054906101000a900460000b9250600460008873ffffffffffffffffffffffffffffffffffffffff1673ffffffffffffffffffffffffffffffffffffffff16815260200190815260200160002060020160029054906101000a900460ff169150600460008873ffffffffffffffffffffffffffffffffffffffff1673ffffffffffffffffffffffffffffffffffffffff16815260200190815260200160002060030154905091939550919395565b60008282604051602001611460929190611ba5565b60405160208183030381529060405280519060200120905092915050565b6000600360009054906101000a900460ff1660ff1614806114cb57508073ffffffffffffffffffffffffffffffffffffffff168273ffffffffffffffffffffffffffffffffffffffff1614155b61150a576040517f08c379a000000000000000000000000000000000000000000000000000000000815260040161150190611c42565b60405180910390fd5b60001515600560008473ffffffffffffffffffffffffffffffffffffffff1673ffffffffffffffffffffffffffffffffffffffff16815260200190815260200160002060008373ffffffffffffffffffffffffffffffffffffffff1673ffffffffffffffffffffffffffffffffffffffff16815260200190815260200160002060009054906101000a900460ff161515146115da576040517f08c379a00000000000000000000000000000000000000000000000000000000081526004016115d190611c62565b60405180910390fd5b6001600560008473ffffffffffffffffffffffffffffffffffffffff1673ffffffffffffffffffffffffffffffffffffffff16815260200190815260200160002060008373ffffffffffffffffffffffffffffffffffffffff1673ffffffffffffffffffffffffffffffffffffffff16815260200190815260200160002060006101000a81548160ff0219169083151502179055506001600460008373ffffffffffffffffffffffffffffffffffffffff1673ffffffffffffffffffffffffffffffffffffffff16815260200190815260200160002060020160018282829054906101000a900460000b6116ce9190611dee565b92506101000a81548160ff021916908360000b60ff1602179055505050565b8280546116f990611f9e565b90600052602060002090601f01602090048101928261171b5760008555611762565b82601f1061173457805160ff1916838001178555611762565b82800160010185558215611762579182015b82811115611761578251825591602001919060010190611746565b5b50905061176f9190611773565b5090565b5b8082111561178c576000816000905550600101611774565b5090565b60006117a361179e84611da1565b611d7c565b9050828152602081018484840111156117bf576117be6120c1565b5b6117ca848285611f5c565b509392505050565b6000813590506117e181612279565b92915050565b6000813590506117f681612290565b92915050565b60008135905061180b816122a7565b92915050565b600082601f830112611826576118256120bc565b5b8135611836848260208601611790565b91505092915050565b60008135905061184e816122be565b92915050565b60006020828403121561186a576118696120cb565b5b6000611878848285016117d2565b91505092915050565b60008060408385031215611898576118976120cb565b5b60006118a6858286016117d2565b92505060206118b7858286016117d2565b9150509250929050565b600080600080608085870312156118db576118da6120cb565b5b60006118e9878288016117d2565b94505060206118fa878288016117d2565b935050604085013567ffffffffffffffff81111561191b5761191a6120c6565b5b61192787828801611811565b9250506060611938878288016117e7565b91505092959194509250565b6000806040838503121561195b5761195a6120cb565b5b6000611969858286016117d2565b925050602061197a858286016117fc565b9150509250929050565b60008060006060848603121561199d5761199c6120cb565b5b60006119ab868287016117d2565b93505060206119bc868287016117fc565b92505060406119cd8682870161183f565b9150509250925092565b600080604083850312156119ee576119ed6120cb565b5b60006119fc858286016117d2565b9250506020611a0d8582860161183f565b9150509250929050565b600060208284031215611a2d57611a2c6120cb565b5b6000611a3b848285016117e7565b91505092915050565b611a4d81611ef0565b82525050565b611a64611a5f82611ef0565b612001565b82525050565b611a7381611f02565b82525050565b611a8a611a8582611f0e565b612013565b82525050565b611a9981611f18565b82525050565b6000611aaa82611dd2565b611ab48185611ddd565b9350611ac4818560208601611f6b565b611acd816120d0565b840191505092915050565b6000611ae5602a83611ddd565b9150611af0826120ee565b604082019050919050565b6000611b08604183611ddd565b9150611b138261213d565b606082019050919050565b6000611b2b602883611ddd565b9150611b36826121b2565b604082019050919050565b6000611b4e602583611ddd565b9150611b5982612201565b604082019050919050565b6000611b71601c83611ddd565b9150611b7c82612250565b602082019050919050565b611b9081611f45565b82525050565b611b9f81611f4f565b82525050565b6000611bb18285611a53565b601482019150611bc18284611a79565b6020820191508190509392505050565b6000602082019050611be66000830184611a44565b92915050565b6000602082019050611c016000830184611a6a565b92915050565b6000602082019050611c1c6000830184611a90565b92915050565b60006020820190508181036000830152611c3b81611ad8565b9050919050565b60006020820190508181036000830152611c5b81611afb565b9050919050565b60006020820190508181036000830152611c7b81611b1e565b9050919050565b60006020820190508181036000830152611c9b81611b41565b9050919050565b60006020820190508181036000830152611cbb81611b64565b9050919050565b6000606082019050611cd76000830186611b87565b611ce46020830185611b87565b611cf16040830184611b96565b949350505050565b6000602082019050611d0e6000830184611b96565b92915050565b600060c082019050611d296000830189611b96565b8181036020830152611d3b8188611a9f565b9050611d4a6040830187611a6a565b611d576060830186611a90565b611d646080830185611a6a565b611d7160a0830184611b87565b979650505050505050565b6000611d86611d97565b9050611d928282611fd0565b919050565b6000604051905090565b600067ffffffffffffffff821115611dbc57611dbb61208d565b5b611dc5826120d0565b9050602081019050919050565b600081519050919050565b600082825260208201905092915050565b6000611df982611f18565b9150611e0483611f18565b925081607f03831360008312151615611e2057611e1f61202f565b5b817fffffffffffffffffffffffffffffffffffffffffffffffffffffffffffffff80038312600083121615611e5857611e5761202f565b5b828201905092915050565b6000611e6e82611f45565b9150611e7983611f45565b9250827fffffffffffffffffffffffffffffffffffffffffffffffffffffffffffffffff03821115611eae57611ead61202f565b5b828201905092915050565b6000611ec482611f4f565b9150611ecf83611f4f565b92508260ff03821115611ee557611ee461202f565b5b828201905092915050565b6000611efb82611f25565b9050919050565b60008115159050919050565b6000819050919050565b60008160000b9050919050565b600073ffffffffffffffffffffffffffffffffffffffff82169050919050565b6000819050919050565b600060ff82169050919050565b82818337600083830152505050565b60005b83811015611f89578082015181840152602081019050611f6e565b83811115611f98576000848401525b50505050565b60006002820490506001821680611fb657607f821691505b60208210811415611fca57611fc961205e565b5b50919050565b611fd9826120d0565b810181811067ffffffffffffffff82111715611ff857611ff761208d565b5b80604052505050565b600061200c8261201d565b9050919050565b6000819050919050565b6000612028826120e1565b9050919050565b7f4e487b7100000000000000000000000000000000000000000000000000000000600052601160045260246000fd5b7f4e487b7100000000000000000000000000000000000000000000000000000000600052602260045260246000fd5b7f4e487b7100000000000000000000000000000000000000000000000000000000600052604160045260246000fd5b600080fd5b600080fd5b600080fd5b600080fd5b6000601f19601f8301169050919050565b60008160601b9050919050565b7f43616c6c6572206973206e6f742074686520466c69676874537572657479417060008201527f7020636f6e747261637400000000000000000000000000000000000000000000602082015250565b7f43616e277420766f7465206f6e20796f7572206f776e2065786365707420776860008201527f656e20746865206f776e657220637265617465732074686520636f6e7472616360208201527f7400000000000000000000000000000000000000000000000000000000000000604082015250565b7f566f7465722068617320616c726561647920766f74656420666f72207468697360008201527f206169726c696e65000000000000000000000000000000000000000000000000602082015250565b7f436f6e74726163742069732063757272656e746c79206e6f74206f706572617460008201527f696f6e616c000000000000000000000000000000000000000000000000000000602082015250565b7f43616c6c6572206973206e6f7420636f6e7472616374206f776e657200000000600082015250565b61228281611ef0565b811461228d57600080fd5b50565b61229981611f02565b81146122a457600080fd5b50565b6122b081611f0e565b81146122bb57600080fd5b50565b6122c781611f45565b81146122d257600080fd5b5056fea2646970667358221220177d419e0cad2fe3ba898195fb31b8d4002970f7f63c6b9411bd38ea96f6050064736f6c63430008060033",
  "immutableReferences": {},
  "source": "pragma solidity ^0.8.6;\n\nimport \"@openzeppelin/contracts/utils/math/SafeMath.sol\";\n\ncontract FlightSuretyData {\n    using SafeMath for uint256;\n    /********************************************************************************************/\n    /*                                       DATA VARIABLES                                     */\n    /********************************************************************************************/\n\n    address private contractOwner; // Account used to deploy contract\n    bool private operational = true; // Blocks all state changes throughout the contract if false\n    address private callerContract; // The deployed App contract address which can call this Data Contract\n\n    struct Insurance {\n        uint256 amount;\n        uint256 claimAmount;\n        uint8 status;\n    }\n\n    struct Airline {\n        uint8 id;\n        string name;\n        bool consensus;\n        int8 voteCount;\n        bool activated;\n        uint256 balance;\n    }\n\n    uint8 private constant BOUGHT_INSURANCE = 0;\n    uint8 private constant CLAIMED_INSURANCE = 1;\n    uint8 private constant WITHDRAWN_INSURANCE = 2;\n\n    mapping(bytes32 => Insurance) insurances; // key => Insurance\n    uint8 totalCountAirlines; // number of airlines\n\n    mapping(address => Airline) airlines; // airlineAddress => Airline\n    mapping(address => mapping(address => bool)) votes; // voterAddress => airlineAddress\n\n    /********************************************************************************************/\n    /*                                       EVENT DEFINITIONS                                  */\n    /********************************************************************************************/\n    event ChangedCallerContract(\n        address indexed oldAddress,\n        address indexed newAddress\n    );\n\n    /********************************************************************************************/\n    /*                                       Constructor                                        */\n    /********************************************************************************************/\n\n    /**\n     * @dev Constructor\n     *      The deploying account becomes contractOwner\n     */\n    constructor() {\n        contractOwner = msg.sender;\n    }\n\n    /********************************************************************************************/\n    /*                                       FUNCTION MODIFIERS                                 */\n    /********************************************************************************************/\n\n    // Modifiers help avoid duplication of code. They are typically used to validate something\n    // before a function is allowed to be executed.\n\n    /**\n     * @dev Modifier that requires the \"operational\" boolean variable to be \"true\"\n     *      This is used on all state changing functions to pause the contract in\n     *      the event there is an issue that needs to be fixed\n     */\n    modifier requireIsOperational() {\n        require(operational, \"Contract is currently not operational\");\n        _; // All modifiers require an \"_\" which indicates where the function body will be added\n    }\n\n    /**\n     * @dev Modifier that requires the \"ContractOwner\" account to be the function caller\n     */\n    modifier requireContractOwner() {\n        require(msg.sender == contractOwner, \"Caller is not contract owner\");\n        _;\n    }\n\n    /**\n     * @dev Modifier that requires the callerContract to be the function caller\n     */\n    modifier requireCallerContract() {\n        require(\n            msg.sender == callerContract,\n            \"Caller is not the FlightSuretyApp contract\"\n        );\n        _;\n    }\n\n    /********************************************************************************************/\n    /*                                       UTILITY FUNCTIONS                                  */\n    /********************************************************************************************/\n\n    /**\n     * @dev Get operating status of contract\n     *\n     * @return A bool that is the current operating status\n     */\n    function isOperational() external view returns (bool) {\n        return operational;\n    }\n\n    /**\n     * @dev Sets contract operations on/off\n     *\n     * When operational mode is disabled, all write transactions except for this one will fail\n     */\n    function setOperatingStatus(bool mode) external requireContractOwner {\n        operational = mode;\n    }\n\n    /**\n     * @dev Sets app contract address\n     *\n     * This allows contract owner to change app contract address, in case a new app is present\n     */\n    function setCallerContractAddress(address _callerContract) external requireContractOwner {\n        callerContract = _callerContract;\n\n        emit ChangedCallerContract(callerContract, _callerContract);\n    }\n\n    /**\n     * @dev Get current app contract address\n     *\n     * This allows contract owner to fetch current app contract address\n     */\n    function getCallerContract() external view requireContractOwner returns (address) {\n        return callerContract;\n    }\n\n    /********************************************************************************************/\n    /*                                     SMART CONTRACT FUNCTIONS                             */\n    /********************************************************************************************/\n\n    /**\n     * @dev Add an airline to the registration queue\n     *      Can only be called from FlightSuretyApp contract\n     *\n     */\n    function registerAirline(address _voterAddress, address addressAirline, string memory _airlineName, bool consensus) external requireIsOperational requireCallerContract {\n\n        _vote(_voterAddress, addressAirline);\n        totalCountAirlines += 1;\n        // airlines count is incremented\n\n        airlines[addressAirline] = Airline({id: totalCountAirlines, name: _airlineName, consensus: consensus, balance: 0, activated: false, voteCount: 1 });\n    }\n\n    /**\n     * @dev Get details of the airline from its address\n     */\n    function getAirline(address addressAirline) external view\n      returns (\n          uint8 id,\n          string memory name,\n          bool consensus,\n          int8 voteCount,\n          bool activated,\n          uint256 balance ) {\n\n        id = airlines[addressAirline].id;\n        name = airlines[addressAirline].name;\n        consensus = airlines[addressAirline].consensus;\n        voteCount = airlines[addressAirline].voteCount;\n        activated = airlines[addressAirline].activated;\n        balance = airlines[addressAirline].balance;\n    }\n\n    /**\n     * @dev Fund the balance for airline\n     */\n    function addAirlineBalance(address addressAirline, uint256 amount) external requireIsOperational requireCallerContract {\n        airlines[addressAirline].balance += amount;\n    }\n\n    /**\n     * @dev Get airline id from its address\n     */\n    function getAirlineId(address addressAirline) external view returns (uint8 id) {\n        id = airlines[addressAirline].id;\n    }\n\n    /**\n     * @dev Approve an airline to be a part of this Flight insurance\n     */\n    function approveAirline(address addressAirline) external requireIsOperational requireCallerContract {\n        airlines[addressAirline].consensus = true;\n    }\n\n    /**\n     * @dev Get the total number of airlines registered\n     */\n    function getTotalCountAirlines() external view returns (uint8 count) {\n        count = totalCountAirlines;\n    }\n\n    /**\n     * @dev Vote for an airline\n     */\n    function voteAirline(address _voterAddress, address addressAirline) external requireIsOperational requireCallerContract returns (int8 voteCount) {\n        \n        _vote(_voterAddress, addressAirline);\n        voteCount = airlines[addressAirline].voteCount;\n    }\n\n    /**\n     * @dev An airline with the given address will be activated\n     */\n    function activateAirline(address addressAirline) external requireIsOperational requireCallerContract {\n        airlines[addressAirline].activated = true;\n    }\n\n    /**\n     * @dev Get the insurance details for the passenger and flight\n     */\n    function getInsurance(address _passengerAddr, bytes32 _flightKey) external view\n      returns (\n          uint256 amount,\n          uint256 claimAmount,\n          uint8 status ) {\n\n        bytes32 key = getInsuranceKey(_passengerAddr, _flightKey);\n\n        amount = insurances[key].amount;\n        claimAmount = insurances[key].claimAmount;\n        status = insurances[key].status;\n    }\n\n    /**\n     * @dev Withdraws the insurance claimed\n     */\n    function withdrawInsurance(address _passengerAddr, bytes32 _flightKey) external requireIsOperational requireCallerContract {\n        bytes32 key = getInsuranceKey(_passengerAddr, _flightKey);\n        insurances[key].status = WITHDRAWN_INSURANCE;\n    }\n\n    /**\n     * @dev To claim the insurance\n     */\n    function claimInsurance(address _passengerAddr, bytes32 _flightKey, uint256 claimAmount) external requireIsOperational requireCallerContract {\n\n        bytes32 key = getInsuranceKey(_passengerAddr, _flightKey);\n        insurances[key].status = CLAIMED_INSURANCE;\n        insurances[key].claimAmount = claimAmount;\n    }\n\n    /**\n     * @dev When a passenger buys an insurance, this function adds the insurance for the passenger\n     * Called in the app contract when the passenger buys insurance for a particular flight\n     */\n    function addInsurance(address _passengerAddr, bytes32 _flightKey, uint256 amount) external requireIsOperational requireCallerContract {\n\n        bytes32 key = getInsuranceKey(_passengerAddr, _flightKey);\n\n        // Key is used to keep track of the insurances for a specific passenfer and flight in the insurance mapping\n\n        insurances[key] = Insurance({\n            amount: amount,\n            claimAmount: 0,\n            status: BOUGHT_INSURANCE\n        });\n    }\n\n    /**\n     * @dev Key is calculated to be unique for each flight by using hashing algorithm\n     */\n    function getInsuranceKey(address _passengerAddr, bytes32 _flightKey) private pure returns (bytes32) {\n        return keccak256(abi.encodePacked(_passengerAddr, _flightKey));\n    }\n\n    /**\n     * @dev Voter's vote is added to an airline\n     */\n    function _vote(address _voterAddress, address addressAirline) private {\n        require(\n            (totalCountAirlines == 0) || (_voterAddress != addressAirline),\n            \"Can't vote on your own except when the owner creates the contract\"\n        );\n        // Allows the owner to vote himself when contract is created\n\n        require(votes[_voterAddress][addressAirline] == false, \"Voter has already voted for this airline\");\n        votes[_voterAddress][addressAirline] = true; // votes mapping is updated to record the voting\n        airlines[addressAirline].voteCount += 1; // votecount for the airline increased by 1\n    }\n}\n",
  "sourcePath": "C:/Users/dines/Downloads/FlightSurety/contracts/FlightSuretyData.sol",
  "compiler": {
    "name": "solc",
    "version": "0.8.6+commit.11564f7e.Emscripten.clang"
  },
  "schemaVersion": "3.4.1",
  "updatedAt": "2021-07-16T16:32:08.290Z",
  "networkType": "ethereum",
  "devdoc": {
    "kind": "dev",
    "methods": {
      "activateAirline(address)": {
        "details": "An airline with the given address will be activated"
      },
      "addAirlineBalance(address,uint256)": {
        "details": "Fund the balance for airline"
      },
      "addInsurance(address,bytes32,uint256)": {
        "details": "When a passenger buys an insurance, this function adds the insurance for the passenger Called in the app contract when the passenger buys insurance for a particular flight"
      },
      "approveAirline(address)": {
        "details": "Approve an airline to be a part of this Flight insurance"
      },
      "claimInsurance(address,bytes32,uint256)": {
        "details": "To claim the insurance"
      },
      "constructor": {
        "details": "Constructor      The deploying account becomes contractOwner"
      },
      "getAirline(address)": {
        "details": "Get details of the airline from its address"
      },
      "getAirlineId(address)": {
        "details": "Get airline id from its address"
      },
      "getCallerContract()": {
        "details": "Get current app contract address This allows contract owner to fetch current app contract address"
      },
      "getInsurance(address,bytes32)": {
        "details": "Get the insurance details for the passenger and flight"
      },
      "getTotalCountAirlines()": {
        "details": "Get the total number of airlines registered"
      },
      "isOperational()": {
        "details": "Get operating status of contract",
        "returns": {
          "_0": "A bool that is the current operating status"
        }
      },
      "registerAirline(address,address,string,bool)": {
        "details": "Add an airline to the registration queue      Can only be called from FlightSuretyApp contract"
      },
      "setCallerContractAddress(address)": {
        "details": "Sets app contract address This allows contract owner to change app contract address, in case a new app is present"
      },
      "setOperatingStatus(bool)": {
        "details": "Sets contract operations on/off When operational mode is disabled, all write transactions except for this one will fail"
      },
      "voteAirline(address,address)": {
        "details": "Vote for an airline"
      },
      "withdrawInsurance(address,bytes32)": {
        "details": "Withdraws the insurance claimed"
      }
    },
    "version": 1
  },
  "userdoc": {
    "kind": "user",
    "methods": {},
    "version": 1
  }
}