{
  "contractName": "FlightSuretyApp",
  "abi": [
    {
      "inputs": [
        {
          "internalType": "address payable",
          "name": "addressDataContract",
          "type": "address"
        }
      ],
      "stateMutability": "nonpayable",
      "type": "constructor"
    },
    {
      "anonymous": false,
      "inputs": [
        {
          "indexed": false,
          "internalType": "address",
          "name": "airline",
          "type": "address"
        },
        {
          "indexed": false,
          "internalType": "string",
          "name": "flight",
          "type": "string"
        },
        {
          "indexed": false,
          "internalType": "uint256",
          "name": "timestamp",
          "type": "uint256"
        },
        {
          "indexed": false,
          "internalType": "uint8",
          "name": "status",
          "type": "uint8"
        }
      ],
      "name": "FlightStatusInfo",
      "type": "event"
    },
    {
      "anonymous": false,
      "inputs": [
        {
          "indexed": false,
          "internalType": "address",
          "name": "airline",
          "type": "address"
        },
        {
          "indexed": false,
          "internalType": "string",
          "name": "flight",
          "type": "string"
        },
        {
          "indexed": false,
          "internalType": "uint256",
          "name": "timestamp",
          "type": "uint256"
        },
        {
          "indexed": false,
          "internalType": "uint8",
          "name": "status",
          "type": "uint8"
        }
      ],
      "name": "OracleReport",
      "type": "event"
    },
    {
      "anonymous": false,
      "inputs": [
        {
          "indexed": false,
          "internalType": "uint8",
          "name": "index",
          "type": "uint8"
        },
        {
          "indexed": false,
          "internalType": "address",
          "name": "airline",
          "type": "address"
        },
        {
          "indexed": false,
          "internalType": "string",
          "name": "flight",
          "type": "string"
        },
        {
          "indexed": false,
          "internalType": "uint256",
          "name": "timestamp",
          "type": "uint256"
        }
      ],
      "name": "OracleRequest",
      "type": "event"
    },
    {
      "stateMutability": "payable",
      "type": "fallback"
    },
    {
      "inputs": [],
      "name": "REGISTRATION_FEE",
      "outputs": [
        {
          "internalType": "uint256",
          "name": "",
          "type": "uint256"
        }
      ],
      "stateMutability": "view",
      "type": "function"
    },
    {
      "stateMutability": "payable",
      "type": "receive"
    },
    {
      "inputs": [],
      "name": "isOperational",
      "outputs": [
        {
          "internalType": "bool",
          "name": "",
          "type": "bool"
        }
      ],
      "stateMutability": "view",
      "type": "function"
    },
    {
      "inputs": [
        {
          "internalType": "bool",
          "name": "newMode",
          "type": "bool"
        }
      ],
      "name": "setOperatingStatus",
      "outputs": [],
      "stateMutability": "nonpayable",
      "type": "function"
    },
    {
      "inputs": [
        {
          "internalType": "address",
          "name": "airlineAddress",
          "type": "address"
        },
        {
          "internalType": "string",
          "name": "airlineName",
          "type": "string"
        }
      ],
      "name": "registerAirline",
      "outputs": [],
      "stateMutability": "nonpayable",
      "type": "function"
    },
    {
      "inputs": [
        {
          "internalType": "string",
          "name": "_flight",
          "type": "string"
        },
        {
          "internalType": "uint256",
          "name": "_newTimestamp",
          "type": "uint256"
        }
      ],
      "name": "registerFlight",
      "outputs": [],
      "stateMutability": "nonpayable",
      "type": "function"
    },
    {
      "inputs": [
        {
          "internalType": "address",
          "name": "_airline",
          "type": "address"
        },
        {
          "internalType": "string",
          "name": "_flight",
          "type": "string"
        },
        {
          "internalType": "uint256",
          "name": "_timestamp",
          "type": "uint256"
        }
      ],
      "name": "getInsurance",
      "outputs": [
        {
          "internalType": "uint256",
          "name": "amount",
          "type": "uint256"
        },
        {
          "internalType": "uint256",
          "name": "claimAmount",
          "type": "uint256"
        },
        {
          "internalType": "uint8",
          "name": "status",
          "type": "uint8"
        }
      ],
      "stateMutability": "view",
      "type": "function"
    },
    {
      "inputs": [
        {
          "internalType": "address",
          "name": "_airline",
          "type": "address"
        },
        {
          "internalType": "string",
          "name": "_flight",
          "type": "string"
        },
        {
          "internalType": "uint256",
          "name": "_timestamp",
          "type": "uint256"
        }
      ],
      "name": "fetchFlight",
      "outputs": [
        {
          "internalType": "uint256",
          "name": "timestamp",
          "type": "uint256"
        },
        {
          "internalType": "uint8",
          "name": "statusCode",
          "type": "uint8"
        },
        {
          "internalType": "string",
          "name": "airlineName",
          "type": "string"
        }
      ],
      "stateMutability": "view",
      "type": "function"
    },
    {
      "inputs": [
        {
          "internalType": "address",
          "name": "_airline",
          "type": "address"
        },
        {
          "internalType": "string",
          "name": "_flight",
          "type": "string"
        },
        {
          "internalType": "uint256",
          "name": "_timestamp",
          "type": "uint256"
        }
      ],
      "name": "buyInsurance",
      "outputs": [],
      "stateMutability": "payable",
      "type": "function"
    },
    {
      "inputs": [
        {
          "internalType": "address",
          "name": "_airline",
          "type": "address"
        },
        {
          "internalType": "string",
          "name": "_flight",
          "type": "string"
        },
        {
          "internalType": "uint256",
          "name": "_timestamp",
          "type": "uint256"
        }
      ],
      "name": "withDrawInsurance",
      "outputs": [],
      "stateMutability": "nonpayable",
      "type": "function"
    },
    {
      "inputs": [
        {
          "internalType": "address",
          "name": "_airline",
          "type": "address"
        },
        {
          "internalType": "string",
          "name": "_flight",
          "type": "string"
        },
        {
          "internalType": "uint256",
          "name": "_timestamp",
          "type": "uint256"
        }
      ],
      "name": "claimInsurance",
      "outputs": [],
      "stateMutability": "nonpayable",
      "type": "function"
    },
    {
      "inputs": [
        {
          "internalType": "address",
          "name": "airline",
          "type": "address"
        },
        {
          "internalType": "string",
          "name": "flight",
          "type": "string"
        },
        {
          "internalType": "uint256",
          "name": "timestamp",
          "type": "uint256"
        }
      ],
      "name": "fetchFlightStatus",
      "outputs": [],
      "stateMutability": "nonpayable",
      "type": "function"
    },
    {
      "inputs": [],
      "name": "registerOracle",
      "outputs": [],
      "stateMutability": "payable",
      "type": "function"
    },
    {
      "inputs": [],
      "name": "getMyIndexes",
      "outputs": [
        {
          "internalType": "uint8[3]",
          "name": "",
          "type": "uint8[3]"
        }
      ],
      "stateMutability": "view",
      "type": "function"
    },
    {
      "inputs": [
        {
          "internalType": "uint8",
          "name": "index",
          "type": "uint8"
        },
        {
          "internalType": "address",
          "name": "airline",
          "type": "address"
        },
        {
          "internalType": "string",
          "name": "flight",
          "type": "string"
        },
        {
          "internalType": "uint256",
          "name": "timestamp",
          "type": "uint256"
        },
        {
          "internalType": "uint8",
          "name": "statusCode",
          "type": "uint8"
        }
      ],
      "name": "submitOracleResponse",
      "outputs": [],
      "stateMutability": "nonpayable",
      "type": "function"
    }
  ],
  "bytecode": "0x60806040526000600360006101000a81548160ff021916908360ff1602179055503480156200002d57600080fd5b5060405162003cdb38038062003cdb8339818101604052810190620000539190620000f2565b336000806101000a81548173ffffffffffffffffffffffffffffffffffffffff021916908373ffffffffffffffffffffffffffffffffffffffff16021790555080600160006101000a81548173ffffffffffffffffffffffffffffffffffffffff021916908373ffffffffffffffffffffffffffffffffffffffff1602179055505062000177565b600081519050620000ec816200015d565b92915050565b6000602082840312156200010b576200010a62000158565b5b60006200011b84828501620000db565b91505092915050565b6000620001318262000138565b9050919050565b600073ffffffffffffffffffffffffffffffffffffffff82169050919050565b600080fd5b620001688162000124565b81146200017457600080fd5b50565b613b5480620001876000396000f3fe6080604052600436106100e15760003560e01c8063aff1983b1161007f578063c83d952b11610059578063c83d952b14610298578063cd905dff146102c1578063ee38a749146102ec578063f83f11c014610315576100f0565b8063aff1983b14610207578063c10f270014610246578063c820cb141461026f576100f0565b8063339d2590116100bb578063339d25901461017e57806339cfc995146101885780635f1cc0e6146101b157806364b4f751146101dc576100f0565b806301f87267146100fa578063110466ed146101395780632f6721d014610162576100f0565b366100f0576100ee61033e565b005b6100f861033e565b005b34801561010657600080fd5b50610121600480360381019061011c919061265e565b6104ef565b60405161013093929190613273565b60405180910390f35b34801561014557600080fd5b50610160600480360381019061015b91906126d2565b610655565b005b61017c6004803603810190610177919061265e565b610773565b005b6101866109b6565b005b34801561019457600080fd5b506101af60048036038101906101aa9190612759565b610aa3565b005b3480156101bd57600080fd5b506101c6610c2a565b6040516101d39190612feb565b60405180910390f35b3480156101e857600080fd5b506101f1610d6a565b6040516101fe9190613221565b60405180910390f35b34801561021357600080fd5b5061022e6004803603810190610229919061265e565b610d76565b60405161023d9392919061323c565b60405180910390f35b34801561025257600080fd5b5061026d60048036038101906102689190612839565b610e91565b005b34801561027b57600080fd5b506102966004803603810190610291919061265e565b61126b565b005b3480156102a457600080fd5b506102bf60048036038101906102ba919061265e565b61152e565b005b3480156102cd57600080fd5b506102d6611761565b6040516102e39190613006565b60405180910390f35b3480156102f857600080fd5b50610313600480360381019061030e91906125fe565b611808565b005b34801561032157600080fd5b5061033c6004803603810190610337919061265e565b611a04565b005b61034733611b03565b610386576040517f08c379a000000000000000000000000000000000000000000000000000000000815260040161037d90613161565b60405180910390fd5b678ac7230489e800003410156103d1576040517f08c379a00000000000000000000000000000000000000000000000000000000081526004016103c890613181565b60405180910390fd5b600160009054906101000a900473ffffffffffffffffffffffffffffffffffffffff1673ffffffffffffffffffffffffffffffffffffffff166335b1379933346040518363ffffffff1660e01b815260040161042e929190612fc2565b600060405180830381600087803b15801561044857600080fd5b505af115801561045c573d6000803e3d6000fd5b50505050600160009054906101000a900473ffffffffffffffffffffffffffffffffffffffff1673ffffffffffffffffffffffffffffffffffffffff166334ce6690336040518263ffffffff1660e01b81526004016104bb9190612e4d565b600060405180830381600087803b1580156104d557600080fd5b505af11580156104e9573d6000803e3d6000fd5b50505050565b600080606060006105458888888080601f016020809104026020016040519081016040528093929190818152602001838380828437600081840152601f19601f8201169050808301925050505050505087611bcd565b90506002600082815260200190815260200160002060000160019054906101000a900460ff16925060026000828152602001908152602001600020600101549350600160009054906101000a900473ffffffffffffffffffffffffffffffffffffffff1673ffffffffffffffffffffffffffffffffffffffff1663e1de0489896040518263ffffffff1660e01b81526004016105e19190612e4d565b60006040518083038186803b1580156105f957600080fd5b505afa15801561060d573d6000803e3d6000fd5b505050506040513d6000823e3d601f19601f8201168201806040525081019061063691906128d3565b9091929394509091925090915090505080925050509450945094915050565b60008054906101000a900473ffffffffffffffffffffffffffffffffffffffff1673ffffffffffffffffffffffffffffffffffffffff163373ffffffffffffffffffffffffffffffffffffffff16146106e3576040517f08c379a00000000000000000000000000000000000000000000000000000000081526004016106da90613121565b60405180910390fd5b600160009054906101000a900473ffffffffffffffffffffffffffffffffffffffff1673ffffffffffffffffffffffffffffffffffffffff1663110466ed826040518263ffffffff1660e01b815260040161073e9190613006565b600060405180830381600087803b15801561075857600080fd5b505af115801561076c573d6000803e3d6000fd5b5050505050565b600034116107b6576040517f08c379a00000000000000000000000000000000000000000000000000000000081526004016107ad90613141565b60405180910390fd5b60006108078585858080601f016020809104026020016040519081016040528093929190818152602001838380828437600081840152601f19601f8201169050808301925050505050505084611bcd565b9050670de0b6b3a764000034116108af57600160009054906101000a900473ffffffffffffffffffffffffffffffffffffffff1673ffffffffffffffffffffffffffffffffffffffff1663758182883383346040518463ffffffff1660e01b815260040161087793929190612f3d565b600060405180830381600087803b15801561089157600080fd5b505af11580156108a5573d6000803e3d6000fd5b50505050506109b0565b600160009054906101000a900473ffffffffffffffffffffffffffffffffffffffff1673ffffffffffffffffffffffffffffffffffffffff1663758182883383670de0b6b3a76400006040518463ffffffff1660e01b815260040161091693929190612f06565b600060405180830381600087803b15801561093057600080fd5b505af1158015610944573d6000803e3d6000fd5b5050505060003390506000670de0b6b3a7640000346109639190613434565b90508173ffffffffffffffffffffffffffffffffffffffff166108fc829081150290604051600060405180830381858888f193505050501580156109ab573d6000803e3d6000fd5b505050505b50505050565b670de0b6b3a7640000341015610a01576040517f08c379a00000000000000000000000000000000000000000000000000000000081526004016109f8906131a1565b60405180910390fd5b6000610a0c33611c03565b9050604051806040016040528060011515815260200182815250600460003373ffffffffffffffffffffffffffffffffffffffff1673ffffffffffffffffffffffffffffffffffffffff16815260200190815260200160002060008201518160000160006101000a81548160ff021916908315150217905550602082015181600101906003610a9c9291906123b7565b5090505050565b610aac33611dea565b610aeb576040517f08c379a0000000000000000000000000000000000000000000000000000000008152600401610ae290613201565b60405180910390fd5b6000610b3c3385858080601f016020809104026020016040519081016040528093929190818152602001838380828437600081840152601f19601f8201169050808301925050505050505084611bcd565b90506040518060800160405280600115158152602001600060ff1681526020018381526020013373ffffffffffffffffffffffffffffffffffffffff168152506002600083815260200190815260200160002060008201518160000160006101000a81548160ff02191690831515021790555060208201518160000160016101000a81548160ff021916908360ff1602179055506040820151816001015560608201518160020160006101000a81548173ffffffffffffffffffffffffffffffffffffffff021916908373ffffffffffffffffffffffffffffffffffffffff16021790555090505050505050565b610c32612451565b600460003373ffffffffffffffffffffffffffffffffffffffff1673ffffffffffffffffffffffffffffffffffffffff16815260200190815260200160002060000160009054906101000a900460ff16610cc1576040517f08c379a0000000000000000000000000000000000000000000000000000000008152600401610cb8906130a1565b60405180910390fd5b600460003373ffffffffffffffffffffffffffffffffffffffff1673ffffffffffffffffffffffffffffffffffffffff168152602001908152602001600020600101600380602002604051908101604052809291908260038015610d60576020028201916000905b82829054906101000a900460ff1660ff1681526020019060010190602082600001049283019260010382029150808411610d295790505b5050505050905090565b670de0b6b3a764000081565b600080600080610dcb8888888080601f016020809104026020016040519081016040528093929190818152602001838380828437600081840152601f19601f8201169050808301925050505050505087611bcd565b9050600160009054906101000a900473ffffffffffffffffffffffffffffffffffffffff1673ffffffffffffffffffffffffffffffffffffffff16636c913c8d33836040518363ffffffff1660e01b8152600401610e2a929190612edd565b60606040518083038186803b158015610e4257600080fd5b505afa158015610e56573d6000803e3d6000fd5b505050506040513d601f19601f82011682018060405250810190610e7a91906127b9565b809450819550829650505050509450945094915050565b8560ff16600460003373ffffffffffffffffffffffffffffffffffffffff1673ffffffffffffffffffffffffffffffffffffffff168152602001908152602001600020600101600060038110610eea57610ee9613690565b5b602091828204019190069054906101000a900460ff1660ff161480610f7e57508560ff16600460003373ffffffffffffffffffffffffffffffffffffffff1673ffffffffffffffffffffffffffffffffffffffff168152602001908152602001600020600101600160038110610f6357610f62613690565b5b602091828204019190069054906101000a900460ff1660ff16145b80610ff857508560ff16600460003373ffffffffffffffffffffffffffffffffffffffff1673ffffffffffffffffffffffffffffffffffffffff168152602001908152602001600020600101600260038110610fdd57610fdc613690565b5b602091828204019190069054906101000a900460ff1660ff16145b611037576040517f08c379a000000000000000000000000000000000000000000000000000000000815260040161102e906131c1565b60405180910390fd5b60008686868686604051602001611052959493929190612e01565b6040516020818303038152906040528051906020012090506005600082815260200190815260200160002060000160149054906101000a900460ff166110cd576040517f08c379a00000000000000000000000000000000000000000000000000000000081526004016110c490613021565b60405180910390fd5b6005600082815260200190815260200160002060010160008360ff1660ff168152602001908152602001600020339080600181540180825580915050600190039060005260206000200160009091909190916101000a81548173ffffffffffffffffffffffffffffffffffffffff021916908373ffffffffffffffffffffffffffffffffffffffff1602179055507f43c853095c2752648493c88b4baac4d580d2594ffb00c6f1d4242d844514f7838686868686604051611192959493929190612f74565b60405180910390a160036005600083815260200190815260200160002060010160008460ff1660ff1681526020019081526020016000208054905010611262577fe23f5229de535c091e3b7bec2665f5d698192d3b31393066e8987b7a05076b6c8686868686604051611209959493929190612f74565b60405180910390a16112618686868080601f016020809104026020016040519081016040528093929190818152602001838380828437600081840152601f19601f820116905080830192505050505050508585611eb8565b5b50505050505050565b60006112bc8585858080601f016020809104026020016040519081016040528093929190818152602001838380828437600081840152601f19601f8201169050808301925050505050505084611bcd565b9050601460ff166002600083815260200190815260200160002060000160019054906101000a900460ff1660ff161461132a576040517f08c379a000000000000000000000000000000000000000000000000000000000815260040161132190613041565b60405180910390fd5b600080600160009054906101000a900473ffffffffffffffffffffffffffffffffffffffff1673ffffffffffffffffffffffffffffffffffffffff16636c913c8d33856040518363ffffffff1660e01b815260040161138a929190612edd565b60606040518083038186803b1580156113a257600080fd5b505afa1580156113b6573d6000803e3d6000fd5b505050506040513d601f19601f820116820180604052508101906113da91906127b9565b925050915060008211611422576040517f08c379a0000000000000000000000000000000000000000000000000000000008152600401611419906130c1565b60405180910390fd5b60008160ff1614611468576040517f08c379a000000000000000000000000000000000000000000000000000000000815260040161145f90613061565b60405180910390fd5b60006114916064611483609686611efd90919063ffffffff16565b611f1390919063ffffffff16565b9050600160009054906101000a900473ffffffffffffffffffffffffffffffffffffffff1673ffffffffffffffffffffffffffffffffffffffff16634ef550203386846040518463ffffffff1660e01b81526004016114f293929190612f3d565b600060405180830381600087803b15801561150c57600080fd5b505af1158015611520573d6000803e3d6000fd5b505050505050505050505050565b600061157f8585858080601f016020809104026020016040519081016040528093929190818152602001838380828437600081840152601f19601f8201169050808301925050505050505084611bcd565b9050600080600160009054906101000a900473ffffffffffffffffffffffffffffffffffffffff1673ffffffffffffffffffffffffffffffffffffffff16636c913c8d33856040518363ffffffff1660e01b81526004016115e1929190612edd565b60606040518083038186803b1580156115f957600080fd5b505afa15801561160d573d6000803e3d6000fd5b505050506040513d601f19601f8201168201806040525081019061163191906127b9565b925092505060018160ff161461167c576040517f08c379a0000000000000000000000000000000000000000000000000000000008152600401611673906131e1565b60405180910390fd5b600160009054906101000a900473ffffffffffffffffffffffffffffffffffffffff1673ffffffffffffffffffffffffffffffffffffffff16635784711d33856040518363ffffffff1660e01b81526004016116d9929190612edd565b600060405180830381600087803b1580156116f357600080fd5b505af1158015611707573d6000803e3d6000fd5b5050505060003390508073ffffffffffffffffffffffffffffffffffffffff166108fc849081150290604051600060405180830381858888f19350505050158015611756573d6000803e3d6000fd5b505050505050505050565b6000600160009054906101000a900473ffffffffffffffffffffffffffffffffffffffff1673ffffffffffffffffffffffffffffffffffffffff1663cd905dff6040518163ffffffff1660e01b815260040160206040518083038186803b1580156117cb57600080fd5b505afa1580156117df573d6000803e3d6000fd5b505050506040513d601f19601f8201168201806040525081019061180391906126ff565b905090565b611810611761565b61184f576040517f08c379a000000000000000000000000000000000000000000000000000000000815260040161184690613101565b60405180910390fd5b61185833611dea565b806118ae575060008054906101000a900473ffffffffffffffffffffffffffffffffffffffff1673ffffffffffffffffffffffffffffffffffffffff163373ffffffffffffffffffffffffffffffffffffffff16145b6118ed576040517f08c379a00000000000000000000000000000000000000000000000000000000081526004016118e4906130e1565b60405180910390fd5b6000600160009054906101000a900473ffffffffffffffffffffffffffffffffffffffff1673ffffffffffffffffffffffffffffffffffffffff166309fcefbc856040518263ffffffff1660e01b815260040161194a9190612e4d565b60206040518083038186803b15801561196257600080fd5b505afa158015611976573d6000803e3d6000fd5b505050506040513d601f19601f8201168201806040525081019061199a919061280c565b60ff16146119b0576119ab83611f29565b6119ff565b6119fe8383838080601f016020809104026020016040519081016040528093929190818152602001838380828437600081840152601f19601f8201169050808301925050505050505061215f565b5b505050565b6000611a0f3361229e565b905060008186868686604051602001611a2c959493929190612e01565b6040516020818303038152906040528051906020012090506000600560008381526020019081526020016000209050338160000160006101000a81548173ffffffffffffffffffffffffffffffffffffffff021916908373ffffffffffffffffffffffffffffffffffffffff16021790555060018160000160146101000a81548160ff0219169083151502179055507f3ed01f2c3fc24c6b329d931e35b03e390d23497d22b3f90e15b600343e93df118388888888604051611af29594939291906132b1565b60405180910390a150505050505050565b600080600160009054906101000a900473ffffffffffffffffffffffffffffffffffffffff1673ffffffffffffffffffffffffffffffffffffffff1663e1de0489846040518263ffffffff1660e01b8152600401611b619190612e4d565b60006040518083038186803b158015611b7957600080fd5b505afa158015611b8d573d6000803e3d6000fd5b505050506040513d6000823e3d601f19601f82011682018060405250810190611bb691906128d3565b5050505050905060008160ff161415915050919050565b6000838383604051602001611be493929190612d9c565b6040516020818303038152906040528051906020012090509392505050565b611c0b612451565b611c13612451565b611c1c8361229e565b81600060038110611c3057611c2f613690565b5b602002019060ff16908160ff168152505080600060038110611c5557611c54613690565b5b602002015181600160038110611c6e57611c6d613690565b5b602002019060ff16908160ff16815250505b80600060038110611c9457611c93613690565b5b602002015160ff1681600160038110611cb057611caf613690565b5b602002015160ff161415611cf157611cc78361229e565b81600160038110611cdb57611cda613690565b5b602002019060ff16908160ff1681525050611c80565b80600160038110611d0557611d04613690565b5b602002015181600260038110611d1e57611d1d613690565b5b602002019060ff16908160ff16815250505b80600060038110611d4457611d43613690565b5b602002015160ff1681600260038110611d6057611d5f613690565b5b602002015160ff161480611da9575080600160038110611d8357611d82613690565b5b602002015160ff1681600260038110611d9f57611d9e613690565b5b602002015160ff16145b15611de157611db78361229e565b81600260038110611dcb57611dca613690565b5b602002019060ff16908160ff1681525050611d30565b80915050919050565b6000600160009054906101000a900473ffffffffffffffffffffffffffffffffffffffff1673ffffffffffffffffffffffffffffffffffffffff1663e1de0489836040518263ffffffff1660e01b8152600401611e479190612e4d565b60006040518083038186803b158015611e5f57600080fd5b505afa158015611e73573d6000803e3d6000fd5b505050506040513d6000823e3d601f19601f82011682018060405250810190611e9c91906128d3565b9091929394509091929350909192509091505080915050919050565b6000611ec5858585611bcd565b9050816002600083815260200190815260200160002060000160016101000a81548160ff021916908360ff1602179055505050505050565b60008183611f0b91906133da565b905092915050565b60008183611f2191906133a9565b905092915050565b6000611fe5600160009054906101000a900473ffffffffffffffffffffffffffffffffffffffff1673ffffffffffffffffffffffffffffffffffffffff1663c5323de533856040518363ffffffff1660e01b8152600401611f8b929190612e68565b602060405180830381600087803b158015611fa557600080fd5b505af1158015611fb9573d6000803e3d6000fd5b505050506040513d601f19601f82011682018060405250810190611fdd919061272c565b60000b61236a565b9050600060018060009054906101000a900473ffffffffffffffffffffffffffffffffffffffff1673ffffffffffffffffffffffffffffffffffffffff16634ff3f41e6040518163ffffffff1660e01b815260040160206040518083038186803b15801561205257600080fd5b505afa158015612066573d6000803e3d6000fd5b505050506040513d601f19601f8201168201806040525081019061208a919061280c565b6120949190613468565b60ff16905060006120c1826120b3606486611efd90919063ffffffff16565b611f1390919063ffffffff16565b90506032811061215957600160009054906101000a900473ffffffffffffffffffffffffffffffffffffffff1673ffffffffffffffffffffffffffffffffffffffff1663419ca9af856040518263ffffffff1660e01b81526004016121269190612e4d565b600060405180830381600087803b15801561214057600080fd5b505af1158015612154573d6000803e3d6000fd5b505050505b50505050565b600160009054906101000a900473ffffffffffffffffffffffffffffffffffffffff1673ffffffffffffffffffffffffffffffffffffffff16639ffd0c34338484600460ff16600160009054906101000a900473ffffffffffffffffffffffffffffffffffffffff1673ffffffffffffffffffffffffffffffffffffffff16634ff3f41e6040518163ffffffff1660e01b815260040160206040518083038186803b15801561220d57600080fd5b505afa158015612221573d6000803e3d6000fd5b505050506040513d601f19601f82011682018060405250810190612245919061280c565b60ff16106040518563ffffffff1660e01b81526004016122689493929190612e91565b600060405180830381600087803b15801561228257600080fd5b505af1158015612296573d6000803e3d6000fd5b505050505050565b600080600a905060008160ff166003600081819054906101000a900460ff16809291906122ca9061358d565b91906101000a81548160ff021916908360ff16021790555060ff16436122f09190613434565b4085604051602001612303929190612dd5565b6040516020818303038152906040528051906020012060001c6123269190613601565b905060fa600360009054906101000a900460ff1660ff161115612360576000600360006101000a81548160ff021916908360ff1602179055505b8092505050919050565b6000808212156123af576040517f08c379a00000000000000000000000000000000000000000000000000000000081526004016123a690613081565b60405180910390fd5b819050919050565b826003601f016020900481019282156124405791602002820160005b8382111561241157835183826101000a81548160ff021916908360ff16021790555092602001926001016020816000010492830192600103026123d3565b801561243e5782816101000a81549060ff0219169055600101602081600001049283019260010302612411565b505b50905061244d9190612473565b5090565b6040518060600160405280600390602082028036833780820191505090505090565b5b8082111561248c576000816000905550600101612474565b5090565b60006124a361249e84613324565b6132ff565b9050828152602081018484840111156124bf576124be6136fd565b5b6124ca848285613529565b509392505050565b6000813590506124e181613aab565b92915050565b6000813590506124f681613ac2565b92915050565b60008151905061250b81613ac2565b92915050565b60008151905061252081613ad9565b92915050565b60008083601f84011261253c5761253b6136f3565b5b8235905067ffffffffffffffff811115612559576125586136ee565b5b602083019150836001820283011115612575576125746136f8565b5b9250929050565b600082601f830112612591576125906136f3565b5b81516125a1848260208601612490565b91505092915050565b6000813590506125b981613af0565b92915050565b6000815190506125ce81613af0565b92915050565b6000813590506125e381613b07565b92915050565b6000815190506125f881613b07565b92915050565b60008060006040848603121561261757612616613707565b5b6000612625868287016124d2565b935050602084013567ffffffffffffffff81111561264657612645613702565b5b61265286828701612526565b92509250509250925092565b6000806000806060858703121561267857612677613707565b5b6000612686878288016124d2565b945050602085013567ffffffffffffffff8111156126a7576126a6613702565b5b6126b387828801612526565b935093505060406126c6878288016125aa565b91505092959194509250565b6000602082840312156126e8576126e7613707565b5b60006126f6848285016124e7565b91505092915050565b60006020828403121561271557612714613707565b5b6000612723848285016124fc565b91505092915050565b60006020828403121561274257612741613707565b5b600061275084828501612511565b91505092915050565b60008060006040848603121561277257612771613707565b5b600084013567ffffffffffffffff8111156127905761278f613702565b5b61279c86828701612526565b935093505060206127af868287016125aa565b9150509250925092565b6000806000606084860312156127d2576127d1613707565b5b60006127e0868287016125bf565b93505060206127f1868287016125bf565b9250506040612802868287016125e9565b9150509250925092565b60006020828403121561282257612821613707565b5b6000612830848285016125e9565b91505092915050565b60008060008060008060a0878903121561285657612855613707565b5b600061286489828a016125d4565b965050602061287589828a016124d2565b955050604087013567ffffffffffffffff81111561289657612895613702565b5b6128a289828a01612526565b945094505060606128b589828a016125aa565b92505060806128c689828a016125d4565b9150509295509295509295565b60008060008060008060c087890312156128f0576128ef613707565b5b60006128fe89828a016125e9565b965050602087015167ffffffffffffffff81111561291f5761291e613702565b5b61292b89828a0161257c565b955050604061293c89828a016124fc565b945050606061294d89828a01612511565b935050608061295e89828a016124fc565b92505060a061296f89828a016125bf565b9150509295509295509295565b60006129888383612d67565b60208301905092915050565b61299d8161349c565b82525050565b6129b46129af8261349c565b6135b7565b82525050565b6129c38161335f565b6129cd8184613382565b92506129d882613355565b8060005b83811015612a095781516129f0878261297c565b96506129fb83613375565b9250506001810190506129dc565b505050505050565b612a1a816134ae565b82525050565b612a29816134ba565b82525050565b612a40612a3b826134ba565b6135c9565b82525050565b612a4f81613508565b82525050565b6000612a61838561338d565b9350612a6e83858461351a565b612a778361370c565b840190509392505050565b6000612a8e838561339e565b9350612a9b83858461351a565b82840190509392505050565b6000612ab28261336a565b612abc818561338d565b9350612acc818560208601613529565b612ad58161370c565b840191505092915050565b6000612aeb8261336a565b612af5818561339e565b9350612b05818560208601613529565b80840191505092915050565b6000612b1e602f8361338d565b9150612b2982613737565b604082019050919050565b6000612b4160258361338d565b9150612b4c82613786565b604082019050919050565b6000612b64601c8361338d565b9150612b6f826137d5565b602082019050919050565b6000612b8760208361338d565b9150612b92826137fe565b602082019050919050565b6000612baa601b8361338d565b9150612bb582613827565b602082019050919050565b6000612bcd60178361338d565b9150612bd882613850565b602082019050919050565b6000612bf060348361338d565b9150612bfb82613879565b604082019050919050565b6000612c1360258361338d565b9150612c1e826138c8565b604082019050919050565b6000612c36601c8361338d565b9150612c4182613917565b602082019050919050565b6000612c5960138361338d565b9150612c6482613940565b602082019050919050565b6000612c7c60198361338d565b9150612c8782613969565b602082019050919050565b6000612c9f60288361338d565b9150612caa82613992565b604082019050919050565b6000612cc2601c8361338d565b9150612ccd826139e1565b602082019050919050565b6000612ce560238361338d565b9150612cf082613a0a565b604082019050919050565b6000612d0860188361338d565b9150612d1382613a59565b602082019050919050565b6000612d2b60198361338d565b9150612d3682613a82565b602082019050919050565b612d4a816134f1565b82525050565b612d61612d5c826134f1565b6135e5565b82525050565b612d70816134fb565b82525050565b612d7f816134fb565b82525050565b612d96612d91826134fb565b6135ef565b82525050565b6000612da882866129a3565b601482019150612db88285612ae0565b9150612dc48284612d50565b602082019150819050949350505050565b6000612de18285612a2f565b602082019150612df182846129a3565b6014820191508190509392505050565b6000612e0d8288612d85565b600182019150612e1d82876129a3565b601482019150612e2e828587612a82565b9150612e3a8284612d50565b6020820191508190509695505050505050565b6000602082019050612e626000830184612994565b92915050565b6000604082019050612e7d6000830185612994565b612e8a6020830184612994565b9392505050565b6000608082019050612ea66000830187612994565b612eb36020830186612994565b8181036040830152612ec58185612aa7565b9050612ed46060830184612a11565b95945050505050565b6000604082019050612ef26000830185612994565b612eff6020830184612a20565b9392505050565b6000606082019050612f1b6000830186612994565b612f286020830185612a20565b612f356040830184612a46565b949350505050565b6000606082019050612f526000830186612994565b612f5f6020830185612a20565b612f6c6040830184612d41565b949350505050565b6000608082019050612f896000830188612994565b8181036020830152612f9c818688612a55565b9050612fab6040830185612d41565b612fb86060830184612d76565b9695505050505050565b6000604082019050612fd76000830185612994565b612fe46020830184612d41565b9392505050565b600060608201905061300060008301846129ba565b92915050565b600060208201905061301b6000830184612a11565b92915050565b6000602082019050818103600083015261303a81612b11565b9050919050565b6000602082019050818103600083015261305a81612b34565b9050919050565b6000602082019050818103600083015261307a81612b57565b9050919050565b6000602082019050818103600083015261309a81612b7a565b9050919050565b600060208201905081810360008301526130ba81612b9d565b9050919050565b600060208201905081810360008301526130da81612bc0565b9050919050565b600060208201905081810360008301526130fa81612be3565b9050919050565b6000602082019050818103600083015261311a81612c06565b9050919050565b6000602082019050818103600083015261313a81612c29565b9050919050565b6000602082019050818103600083015261315a81612c4c565b9050919050565b6000602082019050818103600083015261317a81612c6f565b9050919050565b6000602082019050818103600083015261319a81612c92565b9050919050565b600060208201905081810360008301526131ba81612cb5565b9050919050565b600060208201905081810360008301526131da81612cd8565b9050919050565b600060208201905081810360008301526131fa81612cfb565b9050919050565b6000602082019050818103600083015261321a81612d1e565b9050919050565b60006020820190506132366000830184612d41565b92915050565b60006060820190506132516000830186612d41565b61325e6020830185612d41565b61326b6040830184612d76565b949350505050565b60006060820190506132886000830186612d41565b6132956020830185612d76565b81810360408301526132a78184612aa7565b9050949350505050565b60006080820190506132c66000830188612d76565b6132d36020830187612994565b81810360408301526132e6818587612a55565b90506132f56060830184612d41565b9695505050505050565b600061330961331a565b9050613315828261355c565b919050565b6000604051905090565b600067ffffffffffffffff82111561333f5761333e6136bf565b5b6133488261370c565b9050602081019050919050565b6000819050919050565b600060039050919050565b600081519050919050565b6000602082019050919050565b600081905092915050565b600082825260208201905092915050565b600081905092915050565b60006133b4826134f1565b91506133bf836134f1565b9250826133cf576133ce613661565b5b828204905092915050565b60006133e5826134f1565b91506133f0836134f1565b9250817fffffffffffffffffffffffffffffffffffffffffffffffffffffffffffffffff048311821515161561342957613428613632565b5b828202905092915050565b600061343f826134f1565b915061344a836134f1565b92508282101561345d5761345c613632565b5b828203905092915050565b6000613473826134fb565b915061347e836134fb565b92508282101561349157613490613632565b5b828203905092915050565b60006134a7826134d1565b9050919050565b60008115159050919050565b6000819050919050565b60008160000b9050919050565b600073ffffffffffffffffffffffffffffffffffffffff82169050919050565b6000819050919050565b600060ff82169050919050565b6000613513826134f1565b9050919050565b82818337600083830152505050565b60005b8381101561354757808201518184015260208101905061352c565b83811115613556576000848401525b50505050565b6135658261370c565b810181811067ffffffffffffffff82111715613584576135836136bf565b5b80604052505050565b6000613598826134fb565b915060ff8214156135ac576135ab613632565b5b600182019050919050565b60006135c2826135d3565b9050919050565b6000819050919050565b60006135de8261372a565b9050919050565b6000819050919050565b60006135fa8261371d565b9050919050565b600061360c826134f1565b9150613617836134f1565b92508261362757613626613661565b5b828206905092915050565b7f4e487b7100000000000000000000000000000000000000000000000000000000600052601160045260246000fd5b7f4e487b7100000000000000000000000000000000000000000000000000000000600052601260045260246000fd5b7f4e487b7100000000000000000000000000000000000000000000000000000000600052603260045260246000fd5b7f4e487b7100000000000000000000000000000000000000000000000000000000600052604160045260246000fd5b600080fd5b600080fd5b600080fd5b600080fd5b600080fd5b600080fd5b6000601f19601f8301169050919050565b60008160f81b9050919050565b60008160601b9050919050565b7f466c69676874206f722074696d657374616d7020646f206e6f74206d6174636860008201527f206f7261636c6520726571756573740000000000000000000000000000000000602082015250565b7f4169726c696e65206973206e6f74206c6174652064756520697473206f776e2060008201527f6661756c74000000000000000000000000000000000000000000000000000000602082015250565b7f496e737572616e636520697320616c726561647920636c61696d656400000000600082015250565b7f53616665436173743a2076616c7565206d75737420626520706f736974697665600082015250565b7f4e6f74207265676973746572656420617320616e206f7261636c650000000000600082015250565b7f496e737572616e6365206973206e6f7420626f75676874000000000000000000600082015250565b7f43616c6c6572206d7573742062652065697468657220746865206f776e65722060008201527f6f7220616e20616374697665206169726c696e65000000000000000000000000602082015250565b7f436f6e74726163742069732063757272656e746c79206e6f74206f706572617460008201527f696f6e616c000000000000000000000000000000000000000000000000000000602082015250565b7f43616c6c6572206973206e6f7420636f6e7472616374206f776e657200000000600082015250565b7f43616e6e6f742073656e64203020657468657200000000000000000000000000600082015250565b7f4169726c696e65206973206e6f74207265676973746572656400000000000000600082015250565b7f4169726c696e6520696e697469616c2066756e64696e672069736e277420737560008201527f6666696369656e74000000000000000000000000000000000000000000000000602082015250565b7f526567697374726174696f6e2066656520697320726571756972656400000000600082015250565b7f496e64657820646f6573206e6f74206d61746368206f7261636c65207265717560008201527f6573740000000000000000000000000000000000000000000000000000000000602082015250565b7f496e737572616e6365206973206e6f7420636c61696d65640000000000000000600082015250565b7f546865204169726c696e65206973206e6f742061637469766500000000000000600082015250565b613ab48161349c565b8114613abf57600080fd5b50565b613acb816134ae565b8114613ad657600080fd5b50565b613ae2816134c4565b8114613aed57600080fd5b50565b613af9816134f1565b8114613b0457600080fd5b50565b613b10816134fb565b8114613b1b57600080fd5b5056fea2646970667358221220d6a3b312e556a51fbc1e470f36386611fe0533497468172570cfde7ef4926fe764736f6c63430008060033",
  "immutableReferences": {},
  "source": "pragma solidity ^0.8.6;\n\nimport \"./FlightSuretyData.sol\";\nimport \"@openzeppelin/contracts/utils/math/SafeCast.sol\"; // to typecase variable types safely\nimport \"@openzeppelin/contracts/utils/math/SafeMath.sol\";\n\n/************************************************** */\n/* FlightSurety Smart Contract                      */\n/************************************************** */\n\n/// @author Dinesh B S\ncontract FlightSuretyApp {\n  using SafeMath for uint256; // Allow SafeMath functions to be called for all uint256 types (similar to \"prototype\" in Javascript)\n  /*******************************************************************/\n  /*              DATA VARIABLES                                     */\n  /*******************************************************************/\n\n  // Flight status codes\n  uint8 private constant STATUS_CODE_UNKNOWN = 0;\n  uint8 private constant STATUS_CODE_ON_TIME = 10;\n  uint8 private constant STATUS_CODE_LATE_AIRLINE = 20;\n  uint8 private constant STATUS_CODE_LATE_WEATHER = 30;\n  uint8 private constant STATUS_CODE_LATE_TECHNICAL = 40;\n  uint8 private constant STATUS_CODE_LATE_OTHER = 50;\n\n  address private contractOwner; // Account used to deploy contract\n  FlightSuretyData private dataContract;\n\n  struct Flight {\n    bool isRegistered;\n    uint8 statusCode;\n    uint256 updatedTimestamp;\n    address airline;\n  }\n  mapping(bytes32 => Flight) private flights;\n\n  uint256 constant MINIMUM_FUNDING = 10 ether;\n  uint8 constant MAXIMUM_OWNERS_TO_NOT_VOTE = 4;\n\n  /*******************************************************************/\n  /*                      FUNCTION MODIFIERS                         */\n  /*******************************************************************/\n\n  /**\n   * @dev Modifier that requires the \"operational\" boolean variable to be \"true\"\n   *      This is used on all state changing functions to pause the contract in\n   *      the event there is an issue that needs to be fixed\n   */\n  modifier requireIsOperational() {\n    require(isOperational(), \"Contract is currently not operational\");\n    _; // All modifiers require an \"_\" which indicates where the function body will be added\n  }\n\n  /**\n   * @dev Modifier that requires the \"ContractOwner\" account to be the function caller\n   */\n  modifier requireContractOwner() {\n    require(msg.sender == contractOwner, \"Caller is not contract owner\");\n    _; // All modifiers require an \"_\" which indicates where the function body will be added\n  }\n\n  /**\n   * @dev Modifier that requires acitivated airlines to call the function\n   */\n  modifier requireActivatedAirline() {\n    require(isActivatedAirline(msg.sender), \"The Airline is not active\");\n    _; // All modifiers require an \"_\" which indicates where the function body will be added\n  }\n\n  /**\n   * @dev Modifier that requires a register airline to call the function\n   */\n  modifier requireRegisteredAirline() {\n    require(isRegisteredAirline(msg.sender), \"Airline is not registered\");\n    _; // All modifiers require an \"_\" which indicates where the function body will be added\n  }\n\n  /**\n   * @dev Modifier that requires the minimum funding requirement to satisfied\n   */\n  modifier requireMinimumFunding() {\n    require(msg.value >= MINIMUM_FUNDING, \"Airline initial funding isn't sufficient\");\n    _; // All modifiers require an \"_\" which indicates where the function body will be added\n  }\n\n  /**\n   * @dev Modifier that requires an activated airline or the owner to call the function\n   */\n  modifier requireActivatedAirlineOrContractOwner() {\n    require(isActivatedAirline(msg.sender) || (msg.sender == contractOwner), \"Caller must be either the owner or an active airline\");\n    _; // All modifiers require an \"_\" which indicates where the function body will be added\n  }\n\n  /********************************************************************************************/\n  /*                                       CONSTRUCTOR                                        */\n  /********************************************************************************************/\n\n  /**\n   * @dev Contract constructor\n   *\n   */\n  constructor(address payable addressDataContract) {\n    contractOwner = msg.sender;\n    dataContract = FlightSuretyData(addressDataContract);\n  }\n\n  /********************************************************************************************/\n  /*                                       UTILITY FUNCTIONS                                  */\n  /********************************************************************************************/\n\n  function isOperational() public view returns (bool) {\n    return dataContract.isOperational();\n  }\n\n  /**\n   * @dev Determines whether an airline is registered\n   */\n  function isRegisteredAirline(address addressAirline) private view returns (bool registered) {\n    (uint8 id, , , , , ) = dataContract.getAirline(addressAirline);\n    registered = (id != 0);\n  }\n\n  /**\n   * @dev Sets contract operations to pause or resume\n   */\n  function setOperatingStatus(bool newMode) external requireContractOwner {\n    dataContract.setOperatingStatus(newMode);\n  }\n\n  /**\n   * @dev Returns if an airline is active\n   */\n  function isActivatedAirline(address addressAirline) private view returns (bool activated) {\n    (, , , , activated, ) = dataContract.getAirline(addressAirline);\n  }\n\n  /******************************************************************************/\n  /*                       SMART CONTRACT FUNCTIONS                             */\n  /******************************************************************************/\n\n  /**\n   * @dev Add an airline to the registration queue\n   **/\n  function registerAirline(address airlineAddress, string calldata airlineName) external requireIsOperational requireActivatedAirlineOrContractOwner {\n    \n    if (dataContract.getAirlineId(airlineAddress) != 0) {\n      _voteAirline(airlineAddress); // vote\n    } else {\n      _registerNewAirline(airlineAddress, airlineName); // Request for new registration\n    }\n  }\n\n  /**\n   * @dev Register a future flight for insuring.\n   *\n   */\n  function registerFlight(string calldata _flight, uint256 _newTimestamp) external requireActivatedAirline {\n    \n    bytes32 key = getFlightKey(msg.sender, _flight, _newTimestamp); // key for uniqueness\n    flights[key] = Flight({\n      isRegistered: true,\n      statusCode: STATUS_CODE_UNKNOWN,\n      updatedTimestamp: _newTimestamp,\n      airline: msg.sender\n    });\n  }\n\n  function getInsurance(address _airline, string calldata _flight, uint256 _timestamp) external view\n    returns (\n      uint256 amount,\n      uint256 claimAmount,\n      uint8 status ) {\n\n    bytes32 key = getFlightKey(_airline, _flight, _timestamp); // key for uniqueness\n    (amount, claimAmount, status) = dataContract.getInsurance(msg.sender, key);\n  }\n\n  function fetchFlight(address _airline, string calldata _flight, uint256 _timestamp) external view \n    returns (\n      uint256 timestamp,\n      uint8 statusCode,\n      string memory airlineName ) {\n\n    bytes32 key = getFlightKey(_airline, _flight, _timestamp);\n    statusCode = flights[key].statusCode;\n    timestamp = flights[key].updatedTimestamp;\n    (, airlineName, , , , ) = dataContract.getAirline(_airline);\n  }\n\n  function buyInsurance(address _airline, string calldata _flight, uint256 _timestamp) external payable {\n    \n    require(msg.value > 0, \"Cannot send 0 ether\");\n    bytes32 key = getFlightKey(_airline, _flight, _timestamp);\n    if (msg.value <= 1 ether) {\n      dataContract.addInsurance(msg.sender, key, msg.value);\n      return;\n    }\n\n    // If the value sent is more than 1 ether, return the excess amount as 1 ether is the maximum insurance amount\n    dataContract.addInsurance(msg.sender, key, 1 ether);\n\n    address payable toSender = payable(msg.sender);\n    uint excessAmount = msg.value - 1 ether;\n    toSender.transfer(excessAmount);\n  }\n\n  function withDrawInsurance(address _airline, string calldata _flight, uint256 _timestamp) external {\n\n    bytes32 key = getFlightKey(_airline, _flight, _timestamp);\n    (, uint256 claimAmount, uint8 status) = dataContract.getInsurance(msg.sender, key);\n    require(status == 1, \"Insurance is not claimed\");\n    dataContract.withdrawInsurance(msg.sender, key);\n\n    address payable toSender = payable(msg.sender);\n    toSender.transfer(claimAmount);\n  }\n\n  function claimInsurance(address _airline, string calldata _flight, uint256 _timestamp) external {\n\n    bytes32 key = getFlightKey(_airline, _flight, _timestamp); // key for uniqueness\n    require(flights[key].statusCode == STATUS_CODE_LATE_AIRLINE, \"Airline is not late due its own fault\");\n\n    (uint256 amount, , uint8 status) = dataContract.getInsurance(msg.sender, key);\n    require(amount > 0, \"Insurance is not bought\");\n    require(status == 0, \"Insurance is already claimed\");\n\n    uint256 amountToClaim = amount.mul(150).div(100); // 1.5 times amount spent on insurance is retured when the flight is delayed\n    dataContract.claimInsurance(msg.sender, key, amountToClaim);\n  }\n\n  /**\n   * @dev Called after oracle has updated flight status\n   */\n  function processFlightStatus(address _airline, string memory _flight, uint256 _timestamp, uint8 statusCode) internal {\n\n    bytes32 key = getFlightKey(_airline, _flight, _timestamp);\n    flights[key].statusCode = statusCode;\n  }\n\n  // Generate a request for oracles to fetch flight information\n  function fetchFlightStatus(\n    address airline,\n    string calldata flight,\n    uint256 timestamp\n  ) external {\n    uint8 index = getRandomIndex(msg.sender);\n\n    // Generate a unique key for storing the request\n    bytes32 key = keccak256(\n      abi.encodePacked(index, airline, flight, timestamp)\n    );\n    ResponseInfo storage responseInfo = oracleResponses[key]; // to resolve the issue caused by updated version in solidity\n    responseInfo.requester = msg.sender;\n    responseInfo.isOpen = true;\n\n    emit OracleRequest(index, airline, flight, timestamp);\n  }\n\n  fallback() external payable {\n    _receiveAirlineFunds();\n  }\n\n  receive() external payable {\n    _receiveAirlineFunds();\n  }\n\n  function _receiveAirlineFunds()  /// '_' respresents a private function\n    private requireRegisteredAirline requireMinimumFunding {\n    \n    dataContract.addAirlineBalance(msg.sender, msg.value);\n    dataContract.activateAirline(msg.sender);\n  }\n\n  function _voteAirline(address addressAirline) private {  /// '_' respresents a private function\n    \n    uint256 airlineVoteCount = SafeCast.toUint256(\n      dataContract.voteAirline(msg.sender, addressAirline)\n    );\n\n    uint256 totalAirlineCount = dataContract.getTotalCountAirlines() - 1;\n    uint value = airlineVoteCount.mul(100).div(totalAirlineCount);\n\n    if (value >= 50) {\n      dataContract.approveAirline(addressAirline);\n    }\n  }\n\n  function _registerNewAirline(address addressAirline, string memory nameAirline) private {  /// '_' respresents a private function\n    \n    dataContract.registerAirline(\n      msg.sender,\n      addressAirline,\n      nameAirline,\n      dataContract.getTotalCountAirlines() < MAXIMUM_OWNERS_TO_NOT_VOTE // consensus\n    );\n  }\n\n  // ORACLE MANAGEMENT\n\n  // Incremented to add pseudo-randomness at various points\n  uint8 private nonce = 0;\n\n  // Fee to be paid when registering oracle\n  uint256 public constant REGISTRATION_FEE = 1 ether;\n\n  // Number of oracles that must respond for valid status\n  uint256 private constant MIN_RESPONSES = 3;\n\n  struct Oracle {\n    bool isRegistered;\n    uint8[3] indexes;\n  }\n\n  // Track all registered oracles\n  mapping(address => Oracle) private oracles;\n\n  // Model for responses from oracles\n  struct ResponseInfo {\n    address requester; // Account that requested status\n    bool isOpen; // If open, oracle responses are accepted\n    mapping(uint8 => address[]) responses; // Mapping key is the status code reported\n    // This lets us group responses and identify\n    // the response that majority of the oracles\n  }\n\n  // Track all oracle responses\n  // Key = hash(index, flight, timestamp)\n  mapping(bytes32 => ResponseInfo) private oracleResponses;\n\n  // Event fired each time an oracle submits a response\n  event FlightStatusInfo(\n    address airline,\n    string flight,\n    uint256 timestamp,\n    uint8 status\n  );\n\n  event OracleReport(\n    address airline,\n    string flight,\n    uint256 timestamp,\n    uint8 status\n  );\n\n  // Event fired when flight status request is submitted\n  // Oracles track this and if they have a matching index\n  // they fetch data and submit a response\n  event OracleRequest(\n    uint8 index,\n    address airline,\n    string flight,\n    uint256 timestamp\n  );\n\n  // Register an oracle with the contract\n  function registerOracle() external payable {\n    // Require registration fee\n    require(msg.value >= REGISTRATION_FEE, \"Registration fee is required\");\n\n    uint8[3] memory indexes = generateIndexes(msg.sender);\n\n    oracles[msg.sender] = Oracle({ isRegistered: true, indexes: indexes });\n  }\n\n  function getMyIndexes() external view returns (uint8[3] memory) {\n    require(oracles[msg.sender].isRegistered, \"Not registered as an oracle\");\n\n    return oracles[msg.sender].indexes;\n  }\n\n  // Called by oracle when a response is available to an outstanding request\n  // For the response to be accepted, there must be a pending request that is open\n  // and matches one of the three Indexes randomly assigned to the oracle at the\n  // time of registration (i.e. uninvited oracles are not welcome)\n  function submitOracleResponse(\n    uint8 index,\n    address airline,\n    string calldata flight,\n    uint256 timestamp,\n    uint8 statusCode\n  ) external {\n    require(\n      (oracles[msg.sender].indexes[0] == index) ||\n        (oracles[msg.sender].indexes[1] == index) ||\n        (oracles[msg.sender].indexes[2] == index),\n      \"Index does not match oracle request\"\n    );\n\n    bytes32 key = keccak256(\n      abi.encodePacked(index, airline, flight, timestamp)\n    );\n    require(\n      oracleResponses[key].isOpen,\n      \"Flight or timestamp do not match oracle request\"\n    );\n\n    oracleResponses[key].responses[statusCode].push(msg.sender);\n\n    // Information isn't considered verified until at least MIN_RESPONSES\n    // oracles respond with the *** same *** information\n    emit OracleReport(airline, flight, timestamp, statusCode);\n    if (oracleResponses[key].responses[statusCode].length >= MIN_RESPONSES) {\n      emit FlightStatusInfo(airline, flight, timestamp, statusCode);\n\n      // Handle flight status as appropriate\n      processFlightStatus(airline, flight, timestamp, statusCode);\n    }\n  }\n\n  function getFlightKey(\n    address airline,\n    string memory flight,\n    uint256 timestamp\n  ) internal pure returns (bytes32) {\n    return keccak256(abi.encodePacked(airline, flight, timestamp));\n  }\n\n  // Returns array of three non-duplicating integers from 0-9\n  function generateIndexes(address account) internal returns (uint8[3] memory) {\n    uint8[3] memory indexes;\n    indexes[0] = getRandomIndex(account);\n\n    indexes[1] = indexes[0];\n    while (indexes[1] == indexes[0]) {\n      indexes[1] = getRandomIndex(account);\n    }\n\n    indexes[2] = indexes[1];\n    while ((indexes[2] == indexes[0]) || (indexes[2] == indexes[1])) {\n      indexes[2] = getRandomIndex(account);\n    }\n\n    return indexes;\n  }\n\n  // Returns array of three non-duplicating integers from 0-9\n  function getRandomIndex(address account) internal returns (uint8) {\n    uint8 maxValue = 10;\n\n    // Pseudo random number...the incrementing nonce adds variation\n    uint8 random = uint8(\n      uint256(\n        keccak256(abi.encodePacked(blockhash(block.number - nonce++), account))\n      ) % maxValue\n    );\n\n    if (nonce > 250) {\n      nonce = 0; // Can only fetch blockhashes for last 256 blocks so we adapt\n    }\n\n    return random;\n  }\n\n  // endregion\n}\n",
  "sourcePath": "C:/Users/dines/Downloads/FlightSurety/contracts/FlightSuretyApp.sol",
  "compiler": {
    "name": "solc",
    "version": "0.8.6+commit.11564f7e.Emscripten.clang"
  },
  "schemaVersion": "3.4.1",
  "updatedAt": "2021-07-16T12:23:54.707Z",
  "devdoc": {
    "author": "Dinesh B S",
    "kind": "dev",
    "methods": {
      "constructor": {
        "details": "Contract constructor"
      },
      "registerAirline(address,string)": {
        "details": "Add an airline to the registration queue*"
      },
      "registerFlight(string,uint256)": {
        "details": "Register a future flight for insuring."
      },
      "setOperatingStatus(bool)": {
        "details": "Sets contract operations to pause or resume"
      }
    },
    "version": 1
  },
  "userdoc": {
    "kind": "user",
    "methods": {},
    "version": 1
  }
}